{
  "_format": "hh-sol-artifact-1",
  "contractName": "Certificates",
  "sourceName": "contracts/Certificates.sol",
  "abi": [
    {
      "inputs": [
        {
          "internalType": "address",
          "name": "_identityContract",
          "type": "address"
        }
      ],
      "stateMutability": "nonpayable",
      "type": "constructor"
    },
    {
      "anonymous": false,
      "inputs": [
        {
          "indexed": true,
          "internalType": "bytes32",
          "name": "certificateId",
          "type": "bytes32"
        },
        {
          "indexed": true,
          "internalType": "address",
          "name": "student",
          "type": "address"
        },
        {
          "indexed": true,
          "internalType": "address",
          "name": "institution",
          "type": "address"
        }
      ],
      "name": "CertificateIssued",
      "type": "event"
    },
    {
      "anonymous": false,
      "inputs": [
        {
          "indexed": true,
          "internalType": "bytes32",
          "name": "certificateId",
          "type": "bytes32"
        }
      ],
      "name": "CertificateRevoked",
      "type": "event"
    },
    {
      "anonymous": false,
      "inputs": [
        {
          "indexed": true,
          "internalType": "address",
          "name": "previousContract",
          "type": "address"
        },
        {
          "indexed": true,
          "internalType": "address",
          "name": "newContract",
          "type": "address"
        },
        {
          "indexed": true,
          "internalType": "address",
          "name": "updatedBy",
          "type": "address"
        }
      ],
      "name": "ValidationContractUpdated",
      "type": "event"
    },
    {
      "inputs": [
        {
          "internalType": "bytes32",
          "name": "",
          "type": "bytes32"
        }
      ],
      "name": "certificates",
      "outputs": [
        {
          "internalType": "address",
          "name": "student",
          "type": "address"
        },
        {
          "internalType": "address",
          "name": "institution",
          "type": "address"
        },
        {
          "internalType": "string",
          "name": "ipfsHash",
          "type": "string"
        },
        {
          "internalType": "uint256",
          "name": "issuedAt",
          "type": "uint256"
        },
        {
          "internalType": "bool",
          "name": "isValid",
          "type": "bool"
        }
      ],
      "stateMutability": "view",
      "type": "function"
    },
    {
      "inputs": [
        {
          "internalType": "address",
          "name": "_user",
          "type": "address"
        }
      ],
      "name": "getUserCertificates",
      "outputs": [
        {
          "components": [
            {
              "internalType": "bytes32",
              "name": "certificate",
              "type": "bytes32"
            },
            {
              "internalType": "string",
              "name": "ipfsHash",
              "type": "string"
            },
            {
              "internalType": "bool",
              "name": "exist",
              "type": "bool"
            }
          ],
          "internalType": "struct Certificates.CertificateInfo[]",
          "name": "",
          "type": "tuple[]"
        }
      ],
      "stateMutability": "view",
      "type": "function"
    },
    {
      "inputs": [],
      "name": "identityContract",
      "outputs": [
        {
          "internalType": "contract Identity",
          "name": "",
          "type": "address"
        }
      ],
      "stateMutability": "view",
      "type": "function"
    },
    {
      "inputs": [
        {
          "internalType": "address",
          "name": "_student",
          "type": "address"
        },
        {
          "internalType": "string",
          "name": "_ipfsHash",
          "type": "string"
        }
      ],
      "name": "issueCertificate",
      "outputs": [
        {
          "internalType": "bytes32",
          "name": "",
          "type": "bytes32"
        }
      ],
      "stateMutability": "nonpayable",
      "type": "function"
    },
    {
      "inputs": [
        {
          "internalType": "bytes32",
          "name": "_certificateId",
          "type": "bytes32"
        }
      ],
      "name": "revokeCertificate",
      "outputs": [],
      "stateMutability": "nonpayable",
      "type": "function"
    },
    {
      "inputs": [
        {
          "internalType": "address",
          "name": "_validationContract",
          "type": "address"
        }
      ],
      "name": "setValidationContract",
      "outputs": [],
      "stateMutability": "nonpayable",
      "type": "function"
    },
    {
      "inputs": [
        {
          "internalType": "address",
          "name": "",
          "type": "address"
        },
        {
          "internalType": "uint256",
          "name": "",
          "type": "uint256"
        }
      ],
      "name": "userCertificates",
      "outputs": [
        {
          "internalType": "bytes32",
          "name": "certificate",
          "type": "bytes32"
        },
        {
          "internalType": "string",
          "name": "ipfsHash",
          "type": "string"
        },
        {
          "internalType": "bool",
          "name": "exist",
          "type": "bool"
        }
      ],
      "stateMutability": "view",
      "type": "function"
    },
    {
      "inputs": [],
      "name": "validationContract",
      "outputs": [
        {
          "internalType": "address",
          "name": "",
          "type": "address"
        }
      ],
      "stateMutability": "view",
      "type": "function"
    },
    {
      "inputs": [
        {
          "internalType": "bytes32",
          "name": "_certificateId",
          "type": "bytes32"
        }
      ],
      "name": "verifyCertificate",
      "outputs": [
        {
          "internalType": "address",
          "name": "student",
          "type": "address"
        },
        {
          "internalType": "address",
          "name": "institution",
          "type": "address"
        },
        {
          "internalType": "string",
          "name": "ipfsHash",
          "type": "string"
        },
        {
          "internalType": "uint256",
          "name": "issuedAt",
          "type": "uint256"
        },
        {
          "internalType": "bool",
          "name": "isValid",
          "type": "bool"
        }
      ],
      "stateMutability": "view",
      "type": "function"
    }
  ],
  "bytecode": "0x608060405234801561001057600080fd5b506040516115ea3803806115ea83398101604081905261002f91610059565b6001600081905580546001600160a01b0319166001600160a01b0392909216919091179055610089565b60006020828403121561006b57600080fd5b81516001600160a01b038116811461008257600080fd5b9392505050565b611552806100986000396000f3fe608060405234801561001057600080fd5b50600436106100935760003560e01c8063742f068811610066578063742f068814610123578063850c176814610147578063bb721aab1461015a578063c6cbc52a1461017b578063d2b409a11461018e57600080fd5b80630175f889146100985780630385bd18146100c357806367031bae146100e357806367a6d3b11461010e575b600080fd5b6100ab6100a6366004610f82565b6101a1565b6040516100ba93929190610ffe565b60405180910390f35b6100d66100d1366004611029565b610273565b6040516100ba919061104d565b6001546100f6906001600160a01b031681565b6040516001600160a01b0390911681526020016100ba565b61012161011c366004611029565b610396565b005b6101366101313660046110d0565b6105a7565b6040516100ba9594939291906110e9565b6101366101553660046110d0565b610671565b61016d61016836600461119d565b6107de565b6040519081526020016100ba565b6101216101893660046110d0565b610dbf565b6004546100f6906001600160a01b031681565b600360205281600052604060002081815481106101bd57600080fd5b9060005260206000209060030201600091509150508060000154908060010180546101e790611230565b80601f016020809104026020016040519081016040528092919081815260200182805461021390611230565b80156102605780601f1061023557610100808354040283529160200191610260565b820191906000526020600020905b81548152906001019060200180831161024357829003601f168201915b5050506002909301549192505060ff1683565b6001600160a01b0381166000908152600360209081526040808320805482518185028101850190935280835260609492939192909184015b8282101561038b5783829060005260206000209060030201604051806060016040529081600082015481526020016001820180546102e890611230565b80601f016020809104026020016040519081016040528092919081815260200182805461031490611230565b80156103615780601f1061033657610100808354040283529160200191610361565b820191906000526020600020905b81548152906001019060200180831161034457829003601f168201915b50505091835250506002919091015460ff16151560209182015290825260019290920191016102ab565b505050509050919050565b6004600154604051632782085160e01b81523360048201526001600160a01b0390911690632782085190602401602060405180830381865afa1580156103e0573d6000803e3d6000fd5b505050506040513d601f19601f820116820180604052508101906104049190611280565b60048111156104155761041561126a565b14806104a85750600160009054906101000a90046001600160a01b03166001600160a01b0316638da5cb5b6040518163ffffffff1660e01b8152600401602060405180830381865afa15801561046f573d6000803e3d6000fd5b505050506040513d601f19601f8201168201806040525081019061049391906112a1565b6001600160a01b0316336001600160a01b0316145b6104e85760405162461bcd60e51b815260206004820152600c60248201526b2737ba1030b71030b236b4b760a11b60448201526064015b60405180910390fd5b6001600160a01b038116158061050857506000816001600160a01b03163b115b6105545760405162461bcd60e51b815260206004820152601c60248201527f56616c696461746f72206d757374206265206120636f6e74726163740000000060448201526064016104df565b600480546001600160a01b038381166001600160a01b031983168117909355604051911691339183907f4cd31a1fa6759909a8b3394a99cc4df9c8424492076388cb99e4712dfe2422a590600090a45050565b60026020819052600091825260409091208054600182015492820180546001600160a01b039283169490921692916105de90611230565b80601f016020809104026020016040519081016040528092919081815260200182805461060a90611230565b80156106575780601f1061062c57610100808354040283529160200191610657565b820191906000526020600020905b81548152906001019060200180831161063a57829003601f168201915b50505050600383015460049093015491929160ff16905085565b6000818152600260208181526040808420815160a08101835281546001600160a01b0390811682526001830154169381019390935292830180548594606094869485948594929392918401916106c690611230565b80601f01602080910402602001604051908101604052809291908181526020018280546106f290611230565b801561073f5780601f106107145761010080835404028352916020019161073f565b820191906000526020600020905b81548152906001019060200180831161072257829003601f168201915b50505091835250506003820154602082015260049091015460ff16151560409091015260608101519091506107b65760405162461bcd60e51b815260206004820152601a60248201527f436572746966696361746520646f6573206e6f7420657869737400000000000060448201526064016104df565b8051602082015160408301516060840151608090940151929a91995097509195509350915050565b60006002600154604051632782085160e01b81523360048201526001600160a01b0390911690632782085190602401602060405180830381865afa15801561082a573d6000803e3d6000fd5b505050506040513d601f19601f8201168201806040525081019061084e9190611280565b600481111561085f5761085f61126a565b1480156108d35750600154604051633da1c0c360e01b81523360048201526001600160a01b0390911690633da1c0c390602401602060405180830381865afa1580156108af573d6000803e3d6000fd5b505050506040513d601f19601f820116820180604052508101906108d391906112d3565b61093d5760405162461bcd60e51b815260206004820152603560248201527f4e6f74206120766572696669656420696e737469747574696f6e204f7220757360448201527432b91034b9903737ba1024b739ba34ba3aba34b7b760591b60648201526084016104df565b610945610f14565b600454839083906001600160a01b0316156109fd5760048054604051632193f85960e01b815260009283926001600160a01b031691632193f8599161099091339189918991016112ee565b600060405180830381865afa1580156109ad573d6000803e3d6000fd5b505050506040513d6000823e601f3d908101601f191682016040526109d59190810190611323565b915091508181906109f95760405162461bcd60e51b81526004016104df91906113ad565b5050505b60018054604051632782085160e01b81526001600160a01b03888116600483015290911690632782085190602401602060405180830381865afa158015610a48573d6000803e3d6000fd5b505050506040513d601f19601f82011682018060405250810190610a6c9190611280565b6004811115610a7d57610a7d61126a565b14610b055760405162461bcd60e51b815260206004820152604c60248201527f546865206164647265737320796f752061726520747279696e6720746f20676960448201527f766520746865206365727469666963617465206973206e6f742061207374756460648201526b32b73a1030b2323932b9b99760a11b608482015260a4016104df565b6000845111610b4a5760405162461bcd60e51b8152602060048201526011602482015270092dcecc2d8d2c84092a08ca640d0c2e6d607b1b60448201526064016104df565b600085338642604051602001610b6394939291906113c0565b60408051601f1981840301815291815281516020928301206000818152600290935291206003015490915015610bdb5760405162461bcd60e51b815260206004820152601a60248201527f436572746966696361746520616c72656164792065786973747300000000000060448201526064016104df565b6040805160a0810182526001600160a01b0380891682523360208084019182528385018a8152426060860152600160808601819052600088815260029384905296909620855181549086166001600160a01b031991821617825593519681018054979095169690931695909517909255925191929190820190610c5e908261145c565b506060828101516003838101919091556080909301516004909201805460ff1916921515929092179091556001600160a01b038816600090815260208381526040808320815194850182528685528483018b815260019286018390528154808401835591855292909320845193909502909401918255519192909190820190610ce7908261145c565b50604091820151600291909101805460ff19169115159190911790553360009081526003602081815283832084516060810186528681528083018b815260019682018790528254808801845592865292909420845191909302909201918255519192909190820190610d59908261145c565b50604091820151600291909101805460ff19169115159190911790555133906001600160a01b0388169083907f96acc7d29f59de96f3b52573049182d873062e60b6dd01e0bf81b3cb8f10782290600090a492505050610db96001600055565b92915050565b610dc7610f14565b60008181526002602052604090206003810154610e265760405162461bcd60e51b815260206004820152601a60248201527f436572746966696361746520646f6573206e6f7420657869737400000000000060448201526064016104df565b60018101546001600160a01b03163314610e7b5760405162461bcd60e51b81526020600482015260166024820152752737ba1031b2b93a34b334b1b0ba329034b9b9bab2b960511b60448201526064016104df565b600481015460ff16610ecf5760405162461bcd60e51b815260206004820152601b60248201527f436572746966696361746520616c7265616479207265766f6b6564000000000060448201526064016104df565b60048101805460ff1916905560405182907f44d80a438cb4fa3b5aedbe551ce3d9382e37f446917b783e1dee70a03b4180e390600090a250610f116001600055565b50565b600260005403610f665760405162461bcd60e51b815260206004820152601f60248201527f5265656e7472616e637947756172643a207265656e7472616e742063616c6c0060448201526064016104df565b6002600055565b6001600160a01b0381168114610f1157600080fd5b60008060408385031215610f9557600080fd5b8235610fa081610f6d565b946020939093013593505050565b60005b83811015610fc9578181015183820152602001610fb1565b50506000910152565b60008151808452610fea816020860160208601610fae565b601f01601f19169290920160200192915050565b8381526060602082015260006110176060830185610fd2565b90508215156040830152949350505050565b60006020828403121561103b57600080fd5b813561104681610f6d565b9392505050565b60006020808301818452808551808352604092508286019150828160051b87010184880160005b838110156110c257603f19898403018552815160608151855288820151818a8701526110a282870182610fd2565b928901511515958901959095525094870194925090860190600101611074565b509098975050505050505050565b6000602082840312156110e257600080fd5b5035919050565b6001600160a01b0386811682528516602082015260a06040820181905260009061111590830186610fd2565b6060830194909452509015156080909101529392505050565b634e487b7160e01b600052604160045260246000fd5b604051601f8201601f1916810167ffffffffffffffff8111828210171561116d5761116d61112e565b604052919050565b600067ffffffffffffffff82111561118f5761118f61112e565b50601f01601f191660200190565b600080604083850312156111b057600080fd5b82356111bb81610f6d565b9150602083013567ffffffffffffffff8111156111d757600080fd5b8301601f810185136111e857600080fd5b80356111fb6111f682611175565b611144565b81815286602083850101111561121057600080fd5b816020840160208301376000602083830101528093505050509250929050565b600181811c9082168061124457607f821691505b60208210810361126457634e487b7160e01b600052602260045260246000fd5b50919050565b634e487b7160e01b600052602160045260246000fd5b60006020828403121561129257600080fd5b81516005811061104657600080fd5b6000602082840312156112b357600080fd5b815161104681610f6d565b805180151581146112ce57600080fd5b919050565b6000602082840312156112e557600080fd5b611046826112be565b6001600160a01b0384811682528316602082015260606040820181905260009061131a90830184610fd2565b95945050505050565b6000806040838503121561133657600080fd5b61133f836112be565b9150602083015167ffffffffffffffff81111561135b57600080fd5b8301601f8101851361136c57600080fd5b805161137a6111f682611175565b81815286602083850101111561138f57600080fd5b6113a0826020830160208601610fae565b8093505050509250929050565b6020815260006110466020830184610fd2565b60006bffffffffffffffffffffffff19808760601b168352808660601b1660148401525083516113f7816028850160208801610fae565b6028920191820192909252604801949350505050565b601f82111561145757600081815260208120601f850160051c810160208610156114345750805b601f850160051c820191505b8181101561145357828155600101611440565b5050505b505050565b815167ffffffffffffffff8111156114765761147661112e565b61148a816114848454611230565b8461140d565b602080601f8311600181146114bf57600084156114a75750858301515b600019600386901b1c1916600185901b178555611453565b600085815260208120601f198616915b828110156114ee578886015182559484019460019091019084016114cf565b508582101561150c5787850151600019600388901b60f8161c191681555b5050505050600190811b0190555056fea2646970667358221220260b75120c4e73cdfa0ad3183246e685ec3a298541451c81f25c22bfdd6b4a2564736f6c63430008130033",
  "linkReferences": {},
  "deployedLinkReferences": {}
}