{
  "_format": "hh-sol-artifact-1",
  "contractName": "CourseManagement",
  "sourceName": "contracts/CourseManagement.sol",
  "abi": [
    {
      "inputs": [
        {
          "internalType": "address",
          "name": "_identityContractAddress",
          "type": "address"
        }
      ],
      "stateMutability": "nonpayable",
      "type": "constructor"
    },
    {
      "anonymous": false,
      "inputs": [
        {
          "indexed": true,
          "internalType": "string",
          "name": "courseId",
          "type": "string"
        },
        {
          "indexed": false,
          "internalType": "string",
          "name": "name",
          "type": "string"
        },
        {
          "indexed": false,
          "internalType": "string",
          "name": "department",
          "type": "string"
        }
      ],
      "name": "CourseAdded",
      "type": "event"
    },
    {
      "anonymous": false,
      "inputs": [
        {
          "indexed": true,
          "internalType": "string",
          "name": "courseId",
          "type": "string"
        }
      ],
      "name": "CourseDeactivated",
      "type": "event"
    },
    {
      "anonymous": false,
      "inputs": [
        {
          "indexed": true,
          "internalType": "string",
          "name": "courseId",
          "type": "string"
        },
        {
          "indexed": false,
          "internalType": "string",
          "name": "name",
          "type": "string"
        },
        {
          "indexed": false,
          "internalType": "uint256",
          "name": "credits",
          "type": "uint256"
        },
        {
          "indexed": false,
          "internalType": "string",
          "name": "department",
          "type": "string"
        }
      ],
      "name": "CourseDetailsUpdated",
      "type": "event"
    },
    {
      "anonymous": false,
      "inputs": [
        {
          "indexed": true,
          "internalType": "string",
          "name": "courseId",
          "type": "string"
        },
        {
          "indexed": true,
          "internalType": "string",
          "name": "semester",
          "type": "string"
        },
        {
          "indexed": false,
          "internalType": "string",
          "name": "doctorName",
          "type": "string"
        }
      ],
      "name": "CourseOfferingAdded",
      "type": "event"
    },
    {
      "anonymous": false,
      "inputs": [
        {
          "indexed": true,
          "internalType": "string",
          "name": "courseId",
          "type": "string"
        },
        {
          "indexed": true,
          "internalType": "string",
          "name": "semester",
          "type": "string"
        },
        {
          "indexed": false,
          "internalType": "string",
          "name": "doctorName",
          "type": "string"
        },
        {
          "indexed": false,
          "internalType": "uint256",
          "name": "examDate",
          "type": "uint256"
        },
        {
          "indexed": false,
          "internalType": "string",
          "name": "bookTitle",
          "type": "string"
        }
      ],
      "name": "CourseOfferingUpdated",
      "type": "event"
    },
    {
      "anonymous": false,
      "inputs": [
        {
          "indexed": false,
          "internalType": "string",
          "name": "oldSemester",
          "type": "string"
        },
        {
          "indexed": false,
          "internalType": "string",
          "name": "newSemester",
          "type": "string"
        }
      ],
      "name": "CurrentActiveSemesterUpdated",
      "type": "event"
    },
    {
      "anonymous": false,
      "inputs": [
        {
          "indexed": false,
          "internalType": "string",
          "name": "departmentName",
          "type": "string"
        }
      ],
      "name": "DepartmentAdded",
      "type": "event"
    },
    {
      "anonymous": false,
      "inputs": [
        {
          "indexed": true,
          "internalType": "address",
          "name": "previousOwner",
          "type": "address"
        },
        {
          "indexed": true,
          "internalType": "address",
          "name": "newOwner",
          "type": "address"
        }
      ],
      "name": "OwnershipTransferred",
      "type": "event"
    },
    {
      "anonymous": false,
      "inputs": [
        {
          "indexed": false,
          "internalType": "address",
          "name": "account",
          "type": "address"
        }
      ],
      "name": "Paused",
      "type": "event"
    },
    {
      "anonymous": false,
      "inputs": [
        {
          "indexed": false,
          "internalType": "address",
          "name": "account",
          "type": "address"
        }
      ],
      "name": "Unpaused",
      "type": "event"
    },
    {
      "inputs": [
        {
          "internalType": "string",
          "name": "_courseId",
          "type": "string"
        },
        {
          "internalType": "string",
          "name": "_name",
          "type": "string"
        },
        {
          "internalType": "uint256",
          "name": "_credits",
          "type": "uint256"
        },
        {
          "internalType": "string",
          "name": "_department",
          "type": "string"
        }
      ],
      "name": "addCourse",
      "outputs": [],
      "stateMutability": "nonpayable",
      "type": "function"
    },
    {
      "inputs": [
        {
          "internalType": "string",
          "name": "_courseId",
          "type": "string"
        },
        {
          "internalType": "string",
          "name": "_semester",
          "type": "string"
        },
        {
          "internalType": "string",
          "name": "_doctorName",
          "type": "string"
        },
        {
          "internalType": "uint256",
          "name": "_examDate",
          "type": "uint256"
        },
        {
          "internalType": "string",
          "name": "_bookTitle",
          "type": "string"
        }
      ],
      "name": "addCourseOffering",
      "outputs": [],
      "stateMutability": "nonpayable",
      "type": "function"
    },
    {
      "inputs": [
        {
          "internalType": "string",
          "name": "_departmentName",
          "type": "string"
        }
      ],
      "name": "addDepartment",
      "outputs": [],
      "stateMutability": "nonpayable",
      "type": "function"
    },
    {
      "inputs": [
        {
          "internalType": "string",
          "name": "",
          "type": "string"
        },
        {
          "internalType": "uint256",
          "name": "",
          "type": "uint256"
        }
      ],
      "name": "courseOfferingTerms",
      "outputs": [
        {
          "internalType": "string",
          "name": "",
          "type": "string"
        }
      ],
      "stateMutability": "view",
      "type": "function"
    },
    {
      "inputs": [
        {
          "internalType": "string",
          "name": "",
          "type": "string"
        },
        {
          "internalType": "string",
          "name": "",
          "type": "string"
        }
      ],
      "name": "courseOfferings",
      "outputs": [
        {
          "internalType": "string",
          "name": "semester",
          "type": "string"
        },
        {
          "internalType": "string",
          "name": "doctorName",
          "type": "string"
        },
        {
          "internalType": "uint256",
          "name": "examDate",
          "type": "uint256"
        },
        {
          "internalType": "string",
          "name": "bookTitle",
          "type": "string"
        },
        {
          "internalType": "bool",
          "name": "isAvailableForEnrollment",
          "type": "bool"
        }
      ],
      "stateMutability": "view",
      "type": "function"
    },
    {
      "inputs": [
        {
          "internalType": "string",
          "name": "",
          "type": "string"
        }
      ],
      "name": "courses",
      "outputs": [
        {
          "internalType": "string",
          "name": "courseId",
          "type": "string"
        },
        {
          "internalType": "string",
          "name": "name",
          "type": "string"
        },
        {
          "internalType": "uint256",
          "name": "credits",
          "type": "uint256"
        },
        {
          "internalType": "string",
          "name": "department",
          "type": "string"
        },
        {
          "internalType": "bool",
          "name": "isActive",
          "type": "bool"
        },
        {
          "internalType": "uint256",
          "name": "creationDate",
          "type": "uint256"
        }
      ],
      "stateMutability": "view",
      "type": "function"
    },
    {
      "inputs": [],
      "name": "currentActiveSemester",
      "outputs": [
        {
          "internalType": "string",
          "name": "",
          "type": "string"
        }
      ],
      "stateMutability": "view",
      "type": "function"
    },
    {
      "inputs": [
        {
          "internalType": "string",
          "name": "_courseId",
          "type": "string"
        }
      ],
      "name": "deactivateCourse",
      "outputs": [],
      "stateMutability": "nonpayable",
      "type": "function"
    },
    {
      "inputs": [
        {
          "internalType": "string",
          "name": "",
          "type": "string"
        },
        {
          "internalType": "uint256",
          "name": "",
          "type": "uint256"
        }
      ],
      "name": "departmentCourses",
      "outputs": [
        {
          "internalType": "string",
          "name": "",
          "type": "string"
        }
      ],
      "stateMutability": "view",
      "type": "function"
    },
    {
      "inputs": [
        {
          "internalType": "string",
          "name": "_courseId",
          "type": "string"
        }
      ],
      "name": "getAllCourseOfferingsForCourse",
      "outputs": [
        {
          "components": [
            {
              "internalType": "string",
              "name": "semester",
              "type": "string"
            },
            {
              "internalType": "string",
              "name": "doctorName",
              "type": "string"
            },
            {
              "internalType": "uint256",
              "name": "examDate",
              "type": "uint256"
            },
            {
              "internalType": "string",
              "name": "bookTitle",
              "type": "string"
            },
            {
              "internalType": "bool",
              "name": "isAvailableForEnrollment",
              "type": "bool"
            }
          ],
          "internalType": "struct CourseManagement.CourseOffering[]",
          "name": "",
          "type": "tuple[]"
        }
      ],
      "stateMutability": "view",
      "type": "function"
    },
    {
      "inputs": [],
      "name": "getAllDepartments",
      "outputs": [
        {
          "internalType": "string[]",
          "name": "",
          "type": "string[]"
        }
      ],
      "stateMutability": "view",
      "type": "function"
    },
    {
      "inputs": [
        {
          "internalType": "string",
          "name": "_courseId",
          "type": "string"
        },
        {
          "internalType": "string",
          "name": "_semester",
          "type": "string"
        }
      ],
      "name": "getCourseOfferingDetails",
      "outputs": [
        {
          "internalType": "string",
          "name": "semester",
          "type": "string"
        },
        {
          "internalType": "string",
          "name": "doctorName",
          "type": "string"
        },
        {
          "internalType": "uint256",
          "name": "examDate",
          "type": "uint256"
        },
        {
          "internalType": "string",
          "name": "bookTitle",
          "type": "string"
        },
        {
          "internalType": "bool",
          "name": "isAvailableForEnrollment",
          "type": "bool"
        }
      ],
      "stateMutability": "view",
      "type": "function"
    },
    {
      "inputs": [
        {
          "internalType": "string",
          "name": "_courseId",
          "type": "string"
        }
      ],
      "name": "getCourseStaticDetails",
      "outputs": [
        {
          "internalType": "string",
          "name": "courseId",
          "type": "string"
        },
        {
          "internalType": "string",
          "name": "name",
          "type": "string"
        },
        {
          "internalType": "uint256",
          "name": "credits",
          "type": "uint256"
        },
        {
          "internalType": "string",
          "name": "department",
          "type": "string"
        },
        {
          "internalType": "bool",
          "name": "isActive",
          "type": "bool"
        },
        {
          "internalType": "uint256",
          "name": "creationDate",
          "type": "uint256"
        }
      ],
      "stateMutability": "view",
      "type": "function"
    },
    {
      "inputs": [
        {
          "internalType": "string",
          "name": "_departmentName",
          "type": "string"
        }
      ],
      "name": "getCoursesByDepartment",
      "outputs": [
        {
          "components": [
            {
              "internalType": "string",
              "name": "courseId",
              "type": "string"
            },
            {
              "internalType": "string",
              "name": "name",
              "type": "string"
            },
            {
              "internalType": "uint256",
              "name": "credits",
              "type": "uint256"
            },
            {
              "internalType": "string",
              "name": "department",
              "type": "string"
            },
            {
              "internalType": "bool",
              "name": "isActive",
              "type": "bool"
            },
            {
              "internalType": "uint256",
              "name": "creationDate",
              "type": "uint256"
            }
          ],
          "internalType": "struct CourseManagement.Course[]",
          "name": "",
          "type": "tuple[]"
        }
      ],
      "stateMutability": "view",
      "type": "function"
    },
    {
      "inputs": [
        {
          "internalType": "string",
          "name": "_courseId",
          "type": "string"
        }
      ],
      "name": "getLatestCourseOfferingDetails",
      "outputs": [
        {
          "internalType": "string",
          "name": "semester",
          "type": "string"
        },
        {
          "internalType": "string",
          "name": "doctorName",
          "type": "string"
        },
        {
          "internalType": "uint256",
          "name": "examDate",
          "type": "uint256"
        },
        {
          "internalType": "string",
          "name": "bookTitle",
          "type": "string"
        },
        {
          "internalType": "bool",
          "name": "isAvailableForEnrollment",
          "type": "bool"
        }
      ],
      "stateMutability": "view",
      "type": "function"
    },
    {
      "inputs": [],
      "name": "identityContract",
      "outputs": [
        {
          "internalType": "contract Identity",
          "name": "",
          "type": "address"
        }
      ],
      "stateMutability": "view",
      "type": "function"
    },
    {
      "inputs": [
        {
          "internalType": "string",
          "name": "_departmentName",
          "type": "string"
        }
      ],
      "name": "isDepartmentExist",
      "outputs": [
        {
          "internalType": "bool",
          "name": "",
          "type": "bool"
        }
      ],
      "stateMutability": "view",
      "type": "function"
    },
    {
      "inputs": [],
      "name": "owner",
      "outputs": [
        {
          "internalType": "address",
          "name": "",
          "type": "address"
        }
      ],
      "stateMutability": "view",
      "type": "function"
    },
    {
      "inputs": [],
      "name": "paused",
      "outputs": [
        {
          "internalType": "bool",
          "name": "",
          "type": "bool"
        }
      ],
      "stateMutability": "view",
      "type": "function"
    },
    {
      "inputs": [],
      "name": "renounceOwnership",
      "outputs": [],
      "stateMutability": "nonpayable",
      "type": "function"
    },
    {
      "inputs": [
        {
          "internalType": "string",
          "name": "_semester",
          "type": "string"
        }
      ],
      "name": "setCurrentActiveSemester",
      "outputs": [],
      "stateMutability": "nonpayable",
      "type": "function"
    },
    {
      "inputs": [
        {
          "internalType": "address",
          "name": "newOwner",
          "type": "address"
        }
      ],
      "name": "transferOwnership",
      "outputs": [],
      "stateMutability": "nonpayable",
      "type": "function"
    },
    {
      "inputs": [
        {
          "internalType": "string",
          "name": "_courseId",
          "type": "string"
        },
        {
          "internalType": "string",
          "name": "_newName",
          "type": "string"
        },
        {
          "internalType": "uint256",
          "name": "_newCredits",
          "type": "uint256"
        },
        {
          "internalType": "string",
          "name": "_newDepartment",
          "type": "string"
        }
      ],
      "name": "updateCourseStaticDetails",
      "outputs": [],
      "stateMutability": "nonpayable",
      "type": "function"
    }
  ],
  "bytecode": "0x60806040523480156200001157600080fd5b50604051620036e2380380620036e2833981016040819052620000349162000127565b6200003f33620000d7565b6000805460ff60a01b191690556001600160a01b038116620000b15760405162461bcd60e51b815260206004820152602160248201527f496e76616c6964206964656e7469747920636f6e7472616374206164647265736044820152607360f81b606482015260840160405180910390fd5b600180546001600160a01b0319166001600160a01b039290921691909117905562000159565b600080546001600160a01b038381166001600160a01b0319831681178455604051919092169283917f8be0079c531659141344cd1fd0a4f28419497f9722a3daafe3b4186f6b6457e09190a35050565b6000602082840312156200013a57600080fd5b81516001600160a01b03811681146200015257600080fd5b9392505050565b61357980620001696000396000f3fe608060405234801561001057600080fd5b506004361061014d5760003560e01c80638da5cb5b116100c3578063b2fc015f1161007c578063b2fc015f146102f7578063bc4cce191461030a578063c64729051461031d578063f026fba814610330578063f2fde38b14610343578063fe71abff1461035657600080fd5b80638da5cb5b1461027a5780638fd89a491461028b57806392d1e32e1461029e5780639513ac20146102b1578063a3bb36c1146102c4578063aef8ba31146102d757600080fd5b80635d1c6dce116101155780635d1c6dce146101da57806367031bae146101ff578063715018a61461022a57806386c3a49c1461023257806387355aa6146102475780638d46d0b71461026757600080fd5b806326ad45571461015257806338971dde14610167578063558d1b58146101945780635aa45ba5146101a75780635c975abb146101bc575b600080fd5b610165610160366004612ccf565b610369565b005b61017a610175366004612d0c565b6105a8565b60405161018b959493929190612dc0565b60405180910390f35b6101656101a2366004612e14565b6107f1565b6101af610d5d565b60405161018b9190612ecb565b600054600160a01b900460ff165b604051901515815260200161018b565b6101ed6101e8366004612ccf565b610deb565b60405161018b96959493929190612ee5565b600154610212906001600160a01b031681565b6040516001600160a01b03909116815260200161018b565b610165610fc6565b61023a610fda565b60405161018b9190612f3a565b61025a610255366004612ccf565b6110b3565b60405161018b9190612f9c565b61017a610275366004612ccf565b6114a0565b6000546001600160a01b0316610212565b6101af610299366004613055565b6116e9565b6101656102ac36600461309a565b611730565b6101656102bf366004612ccf565b6119dc565b6101ed6102d2366004612ccf565b611c13565b6102ea6102e5366004612ccf565b611e55565b60405161018b919061312c565b610165610305366004612ccf565b61222e565b6101ca610318366004612ccf565b6124a7565b61016561032b36600461309a565b6124d2565b6101af61033e366004613055565b6128ed565b6101656103513660046131e0565b612918565b61017a610364366004612d0c565b612991565b600154604051633da1c0c360e01b81523360048201526001600160a01b0390911690633da1c0c390602401602060405180830381865afa1580156103b1573d6000803e3d6000fd5b505050506040513d601f19601f820116820180604052508101906103d59190613209565b801561045c5750600154604051632782085160e01b81523360048201526002916001600160a01b031690632782085190602401602060405180830381865afa158015610425573d6000803e3d6000fd5b505050506040513d601f19601f820116820180604052508101906104499190613241565b600481111561045a5761045a61322b565b145b6104815760405162461bcd60e51b815260040161047890613262565b60405180910390fd5b60006002826040516104939190613299565b908152602001604051809103902060050154116104c25760405162461bcd60e51b8152600401610478906132b5565b6002816040516104d29190613299565b9081526040519081900360200190206004015460ff166105345760405162461bcd60e51b815260206004820152601a60248201527f436f7572736520697320616c726561647920696e6163746976650000000000006044820152606401610478565b60006002826040516105469190613299565b908152604051908190036020018120600401805492151560ff1990931692909217909155610575908290613299565b604051908190038120907fa07b30dfa136f367383fd98292dfb4c40680d5aba96f4d76e3058b6bc788899490600090a250565b606080600060606000806003886040516105c29190613299565b9081526020016040518091039020876040516105de9190613299565b90815260200160405180910390206040518060a0016040529081600082018054610607906132e4565b80601f0160208091040260200160405190810160405280929190818152602001828054610633906132e4565b80156106805780601f1061065557610100808354040283529160200191610680565b820191906000526020600020905b81548152906001019060200180831161066357829003601f168201915b50505050508152602001600182018054610699906132e4565b80601f01602080910402602001604051908101604052809291908181526020018280546106c5906132e4565b80156107125780601f106106e757610100808354040283529160200191610712565b820191906000526020600020905b8154815290600101906020018083116106f557829003601f168201915b5050505050815260200160028201548152602001600382018054610735906132e4565b80601f0160208091040260200160405190810160405280929190818152602001828054610761906132e4565b80156107ae5780601f10610783576101008083540402835291602001916107ae565b820191906000526020600020905b81548152906001019060200180831161079157829003601f168201915b50505091835250506004919091015460ff16151560209182015281519082015160408301516060840151608090940151929c919b50995091975095509350505050565b600154604051633da1c0c360e01b81523360048201526001600160a01b0390911690633da1c0c390602401602060405180830381865afa158015610839573d6000803e3d6000fd5b505050506040513d601f19601f8201168201806040525081019061085d9190613209565b80156108e45750600154604051632782085160e01b81523360048201526002916001600160a01b031690632782085190602401602060405180830381865afa1580156108ad573d6000803e3d6000fd5b505050506040513d601f19601f820116820180604052508101906108d19190613241565b60048111156108e2576108e261322b565b145b6109005760405162461bcd60e51b815260040161047890613262565b60006002866040516109129190613299565b908152602001604051809103902060050154116109415760405162461bcd60e51b8152600401610478906132b5565b6002856040516109519190613299565b9081526040519081900360200190206004015460ff166109a85760405162461bcd60e51b8152602060048201526012602482015271436f7572736520697320696e61637469766560701b6044820152606401610478565b60008451116109f45760405162461bcd60e51b815260206004820152601860248201527753656d65737465722063616e6e6f7420626520656d70747960401b6044820152606401610478565b6000835111610a455760405162461bcd60e51b815260206004820152601b60248201527f446f63746f72206e616d652063616e6e6f7420626520656d70747900000000006044820152606401610478565b6040805160008152602081019182905251812090600390610a67908890613299565b908152602001604051809103902085604051610a839190613299565b90815260405160209181900382018120610a9f9290910161331e565b6040516020818303038152906040528051906020012014610b1b5760405162461bcd60e51b815260206004820152603060248201527f436f75727365206f66666572696e6720616c726561647920657869737473206660448201526f37b9103a3434b99039b2b6b2b9ba32b960811b6064820152608401610478565b6040518060a0016040528085815260200184815260200183815260200182815260200160011515815250600386604051610b559190613299565b908152602001604051809103902085604051610b719190613299565b90815260405190819003602001902081518190610b8e90826133e3565b5060208201516001820190610ba390826133e3565b506040820151600282015560608201516003820190610bc290826133e3565b50608091909101516004909101805460ff19169115159190911790556000805b600487604051610bf29190613299565b90815260405190819003602001902054811015610caf5785604051602001610c1a9190613299565b60405160208183030381529060405280519060200120600488604051610c409190613299565b90815260200160405180910390208281548110610c5f57610c5f6134a3565b90600052602060002001604051602001610c79919061331e565b6040516020818303038152906040528051906020012003610c9d5760019150610caf565b80610ca7816134b9565b915050610be2565b5080610cf257600486604051610cc59190613299565b908152604051602091819003820190208054600181018255600091825291902001610cf086826133e3565b505b84604051610d009190613299565b604051809103902086604051610d169190613299565b60405180910390207fb034df19dc1c2b6d604d27109b4fdc967f66ffe7e37119680f5f255a6c370d0286604051610d4d9190612ecb565b60405180910390a3505050505050565b60068054610d6a906132e4565b80601f0160208091040260200160405190810160405280929190818152602001828054610d96906132e4565b8015610de35780601f10610db857610100808354040283529160200191610de3565b820191906000526020600020905b815481529060010190602001808311610dc657829003601f168201915b505050505081565b8051602081830181018051600282529282019190930120915280548190610e11906132e4565b80601f0160208091040260200160405190810160405280929190818152602001828054610e3d906132e4565b8015610e8a5780601f10610e5f57610100808354040283529160200191610e8a565b820191906000526020600020905b815481529060010190602001808311610e6d57829003601f168201915b505050505090806001018054610e9f906132e4565b80601f0160208091040260200160405190810160405280929190818152602001828054610ecb906132e4565b8015610f185780601f10610eed57610100808354040283529160200191610f18565b820191906000526020600020905b815481529060010190602001808311610efb57829003601f168201915b505050505090806002015490806003018054610f33906132e4565b80601f0160208091040260200160405190810160405280929190818152602001828054610f5f906132e4565b8015610fac5780601f10610f8157610100808354040283529160200191610fac565b820191906000526020600020905b815481529060010190602001808311610f8f57829003601f168201915b505050506004830154600590930154919260ff1691905086565b610fce612b82565b610fd86000612bdc565b565b60606007805480602002602001604051908101604052809291908181526020016000905b828210156110aa57838290600052602060002001805461101d906132e4565b80601f0160208091040260200160405190810160405280929190818152602001828054611049906132e4565b80156110965780601f1061106b57610100808354040283529160200191611096565b820191906000526020600020905b81548152906001019060200180831161107957829003601f168201915b505050505081526020019060010190610ffe565b50505050905090565b606060006004836040516110c79190613299565b9081526020016040518091039020805480602002602001604051908101604052809291908181526020016000905b828210156111a1578382906000526020600020018054611114906132e4565b80601f0160208091040260200160405190810160405280929190818152602001828054611140906132e4565b801561118d5780601f106111625761010080835404028352916020019161118d565b820191906000526020600020905b81548152906001019060200180831161117057829003601f168201915b5050505050815260200190600101906110f5565b5050505090506000815167ffffffffffffffff8111156111c3576111c3612c2c565b60405190808252806020026020018201604052801561122857816020015b6112156040518060a00160405280606081526020016060815260200160008152602001606081526020016000151581525090565b8152602001906001900390816111e15790505b50905060005b8251811015611498576003856040516112479190613299565b9081526020016040518091039020838281518110611267576112676134a3565b602002602001015160405161127c9190613299565b90815260200160405180910390206040518060a00160405290816000820180546112a5906132e4565b80601f01602080910402602001604051908101604052809291908181526020018280546112d1906132e4565b801561131e5780601f106112f35761010080835404028352916020019161131e565b820191906000526020600020905b81548152906001019060200180831161130157829003601f168201915b50505050508152602001600182018054611337906132e4565b80601f0160208091040260200160405190810160405280929190818152602001828054611363906132e4565b80156113b05780601f10611385576101008083540402835291602001916113b0565b820191906000526020600020905b81548152906001019060200180831161139357829003601f168201915b50505050508152602001600282015481526020016003820180546113d3906132e4565b80601f01602080910402602001604051908101604052809291908181526020018280546113ff906132e4565b801561144c5780601f106114215761010080835404028352916020019161144c565b820191906000526020600020905b81548152906001019060200180831161142f57829003601f168201915b50505091835250506004919091015460ff161515602090910152825183908390811061147a5761147a6134a3565b60200260200101819052508080611490906134b9565b91505061122e565b509392505050565b606080600060606000806003876040516114ba9190613299565b908152602001604051809103902060066040516114d7919061331e565b90815260200160405180910390206040518060a0016040529081600082018054611500906132e4565b80601f016020809104026020016040519081016040528092919081815260200182805461152c906132e4565b80156115795780601f1061154e57610100808354040283529160200191611579565b820191906000526020600020905b81548152906001019060200180831161155c57829003601f168201915b50505050508152602001600182018054611592906132e4565b80601f01602080910402602001604051908101604052809291908181526020018280546115be906132e4565b801561160b5780601f106115e05761010080835404028352916020019161160b565b820191906000526020600020905b8154815290600101906020018083116115ee57829003601f168201915b505050505081526020016002820154815260200160038201805461162e906132e4565b80601f016020809104026020016040519081016040528092919081815260200182805461165a906132e4565b80156116a75780601f1061167c576101008083540402835291602001916116a7565b820191906000526020600020905b81548152906001019060200180831161168a57829003601f168201915b50505091835250506004919091015460ff16151560209182015281519082015160408301516060840151608090940151929b919a509850919650945092505050565b8151602081840181018051600582529282019185019190912091905280548290811061171457600080fd5b90600052602060002001600091509150508054610d6a906132e4565b600154604051633da1c0c360e01b81523360048201526001600160a01b0390911690633da1c0c390602401602060405180830381865afa158015611778573d6000803e3d6000fd5b505050506040513d601f19601f8201168201806040525081019061179c9190613209565b80156118235750600154604051632782085160e01b81523360048201526002916001600160a01b031690632782085190602401602060405180830381865afa1580156117ec573d6000803e3d6000fd5b505050506040513d601f19601f820116820180604052508101906118109190613241565b60048111156118215761182161322b565b145b61183f5760405162461bcd60e51b815260040161047890613262565b60006002856040516118519190613299565b908152602001604051809103902060050154116118805760405162461bcd60e51b8152600401610478906132b5565b60008351116118d15760405162461bcd60e51b815260206004820152601b60248201527f436f75727365206e616d652063616e6e6f7420626520656d70747900000000006044820152606401610478565b6008816040516118e19190613299565b9081526040519081900360200190205460ff1661193c5760405162461bcd60e51b815260206004820152601960248201527811195c185c9d1b595b9d08191bd95cc81b9bdd08195e1a5cdd603a1b6044820152606401610478565b600060028560405161194e9190613299565b90815260405190819003602001902090506001810161196d85826133e3565b50600281018390556003810161198383826133e3565b50846040516119929190613299565b60405180910390207f7da81e3645323c6636839fbd1363f7aa7c1bc766b3b21e28f995de039de72dbd8585856040516119cd939291906134e0565b60405180910390a25050505050565b600154604051633da1c0c360e01b81523360048201526001600160a01b0390911690633da1c0c390602401602060405180830381865afa158015611a24573d6000803e3d6000fd5b505050506040513d601f19601f82011682018060405250810190611a489190613209565b8015611acf5750600154604051632782085160e01b81523360048201526002916001600160a01b031690632782085190602401602060405180830381865afa158015611a98573d6000803e3d6000fd5b505050506040513d601f19601f82011682018060405250810190611abc9190613241565b6004811115611acd57611acd61322b565b145b611aeb5760405162461bcd60e51b815260040161047890613262565b6000815111611b375760405162461bcd60e51b815260206004820152601860248201527753656d65737465722063616e6e6f7420626520656d70747960401b6044820152606401610478565b600060068054611b46906132e4565b80601f0160208091040260200160405190810160405280929190818152602001828054611b72906132e4565b8015611bbf5780601f10611b9457610100808354040283529160200191611bbf565b820191906000526020600020905b815481529060010190602001808311611ba257829003601f168201915b505050505090508160069081611bd591906133e3565b507ffeb291efb2acbe2b56737676612bda3fddd7ce58e8c47d1169bc00a212bee07e8183604051611c07929190613515565b60405180910390a15050565b606080600060606000806000600288604051611c2f9190613299565b90815260200160405180910390206040518060c0016040529081600082018054611c58906132e4565b80601f0160208091040260200160405190810160405280929190818152602001828054611c84906132e4565b8015611cd15780601f10611ca657610100808354040283529160200191611cd1565b820191906000526020600020905b815481529060010190602001808311611cb457829003601f168201915b50505050508152602001600182018054611cea906132e4565b80601f0160208091040260200160405190810160405280929190818152602001828054611d16906132e4565b8015611d635780601f10611d3857610100808354040283529160200191611d63565b820191906000526020600020905b815481529060010190602001808311611d4657829003601f168201915b5050505050815260200160028201548152602001600382018054611d86906132e4565b80601f0160208091040260200160405190810160405280929190818152602001828054611db2906132e4565b8015611dff5780601f10611dd457610100808354040283529160200191611dff565b820191906000526020600020905b815481529060010190602001808311611de257829003601f168201915b5050509183525050600482015460ff161515602080830191909152600590920154604091820152825191830151908301516060840151608085015160a090950151939d929c50909a509850919650945092505050565b60606000600583604051611e699190613299565b9081526020016040518091039020805480602002602001604051908101604052809291908181526020016000905b82821015611f43578382906000526020600020018054611eb6906132e4565b80601f0160208091040260200160405190810160405280929190818152602001828054611ee2906132e4565b8015611f2f5780601f10611f0457610100808354040283529160200191611f2f565b820191906000526020600020905b815481529060010190602001808311611f1257829003601f168201915b505050505081526020019060010190611e97565b5050505090506000815167ffffffffffffffff811115611f6557611f65612c2c565b604051908082528060200260200182016040528015611fd157816020015b611fbe6040518060c0016040528060608152602001606081526020016000815260200160608152602001600015158152602001600081525090565b815260200190600190039081611f835790505b50905060005b8251811015611498576002838281518110611ff457611ff46134a3565b60200260200101516040516120099190613299565b90815260200160405180910390206040518060c0016040529081600082018054612032906132e4565b80601f016020809104026020016040519081016040528092919081815260200182805461205e906132e4565b80156120ab5780601f10612080576101008083540402835291602001916120ab565b820191906000526020600020905b81548152906001019060200180831161208e57829003601f168201915b505050505081526020016001820180546120c4906132e4565b80601f01602080910402602001604051908101604052809291908181526020018280546120f0906132e4565b801561213d5780601f106121125761010080835404028352916020019161213d565b820191906000526020600020905b81548152906001019060200180831161212057829003601f168201915b5050505050815260200160028201548152602001600382018054612160906132e4565b80601f016020809104026020016040519081016040528092919081815260200182805461218c906132e4565b80156121d95780601f106121ae576101008083540402835291602001916121d9565b820191906000526020600020905b8154815290600101906020018083116121bc57829003601f168201915b5050509183525050600482015460ff16151560208201526005909101546040909101528251839083908110612210576122106134a3565b60200260200101819052508080612226906134b9565b915050611fd7565b600154604051633da1c0c360e01b81523360048201526001600160a01b0390911690633da1c0c390602401602060405180830381865afa158015612276573d6000803e3d6000fd5b505050506040513d601f19601f8201168201806040525081019061229a9190613209565b80156123215750600154604051632782085160e01b81523360048201526002916001600160a01b031690632782085190602401602060405180830381865afa1580156122ea573d6000803e3d6000fd5b505050506040513d601f19601f8201168201806040525081019061230e9190613241565b600481111561231f5761231f61322b565b145b61233d5760405162461bcd60e51b815260040161047890613262565b600081511161238e5760405162461bcd60e51b815260206004820152601f60248201527f4465706172746d656e74206e616d652063616e6e6f7420626520656d707479006044820152606401610478565b60088160405161239e9190613299565b9081526040519081900360200190205460ff16156123fe5760405162461bcd60e51b815260206004820152601960248201527f4465706172746d656e7420616c726561647920657869737473000000000000006044820152606401610478565b60016008826040516124109190613299565b908152604051908190036020019020805491151560ff19909216919091179055600780546001810182556000919091527fa66cc928b5edb82af9bd49922954155ab7b0942694bea4ce44661d9a8736c6880161246c82826133e3565b507f799b2a61208c85186bb01871106aca03f37142d80101908019e229478f5bddbc8160405161249c9190612ecb565b60405180910390a150565b60006008826040516124b99190613299565b9081526040519081900360200190205460ff1692915050565b600154604051633da1c0c360e01b81523360048201526001600160a01b0390911690633da1c0c390602401602060405180830381865afa15801561251a573d6000803e3d6000fd5b505050506040513d601f19601f8201168201806040525081019061253e9190613209565b80156125c55750600154604051632782085160e01b81523360048201526002916001600160a01b031690632782085190602401602060405180830381865afa15801561258e573d6000803e3d6000fd5b505050506040513d601f19601f820116820180604052508101906125b29190613241565b60048111156125c3576125c361322b565b145b6125e15760405162461bcd60e51b815260040161047890613262565b60008451116126325760405162461bcd60e51b815260206004820152601960248201527f436f757273652049442063616e6e6f7420626520656d707479000000000000006044820152606401610478565b60008351116126835760405162461bcd60e51b815260206004820152601b60248201527f436f75727365206e616d652063616e6e6f7420626520656d70747900000000006044820152606401610478565b60008151116126d45760405162461bcd60e51b815260206004820152601a60248201527f4465706172746d656e742063616e6e6f7420626520656d7074790000000000006044820152606401610478565b6002846040516126e49190613299565b90815260200160405180910390206005015460001461273d5760405162461bcd60e51b8152602060048201526015602482015274436f7572736520616c72656164792065786973747360581b6044820152606401610478565b60088160405161274d9190613299565b9081526040519081900360200190205460ff166127a85760405162461bcd60e51b815260206004820152601960248201527811195c185c9d1b595b9d08191bd95cc81b9bdd08195e1a5cdd603a1b6044820152606401610478565b6040518060c00160405280858152602001848152602001838152602001828152602001600115158152602001428152506002856040516127e89190613299565b9081526040519081900360200190208151819061280590826133e3565b506020820151600182019061281a90826133e3565b50604082015160028201556060820151600382019061283990826133e3565b50608082015160048201805460ff191691151591909117905560a09091015160059182015560405161286c908390613299565b90815260405160209181900382019020805460018101825560009182529190200161289785826133e3565b50836040516128a69190613299565b60405180910390207fd9833c4c67494ad6fc68f13f04ab523361488fa95be6f2a639d315099ab025da84836040516128df929190613515565b60405180910390a250505050565b8151602081840181018051600482529282019185019190912091905280548290811061171457600080fd5b612920612b82565b6001600160a01b0381166129855760405162461bcd60e51b815260206004820152602660248201527f4f776e61626c653a206e6577206f776e657220697320746865207a65726f206160448201526564647265737360d01b6064820152608401610478565b61298e81612bdc565b50565b815160208184018101805160038252928201948201949094209190935281518083018401805192815290840192909301919091209152805481906129d4906132e4565b80601f0160208091040260200160405190810160405280929190818152602001828054612a00906132e4565b8015612a4d5780601f10612a2257610100808354040283529160200191612a4d565b820191906000526020600020905b815481529060010190602001808311612a3057829003601f168201915b505050505090806001018054612a62906132e4565b80601f0160208091040260200160405190810160405280929190818152602001828054612a8e906132e4565b8015612adb5780601f10612ab057610100808354040283529160200191612adb565b820191906000526020600020905b815481529060010190602001808311612abe57829003601f168201915b505050505090806002015490806003018054612af6906132e4565b80601f0160208091040260200160405190810160405280929190818152602001828054612b22906132e4565b8015612b6f5780601f10612b4457610100808354040283529160200191612b6f565b820191906000526020600020905b815481529060010190602001808311612b5257829003601f168201915b5050506004909301549192505060ff1685565b6000546001600160a01b03163314610fd85760405162461bcd60e51b815260206004820181905260248201527f4f776e61626c653a2063616c6c6572206973206e6f7420746865206f776e65726044820152606401610478565b600080546001600160a01b038381166001600160a01b0319831681178455604051919092169283917f8be0079c531659141344cd1fd0a4f28419497f9722a3daafe3b4186f6b6457e09190a35050565b634e487b7160e01b600052604160045260246000fd5b600082601f830112612c5357600080fd5b813567ffffffffffffffff80821115612c6e57612c6e612c2c565b604051601f8301601f19908116603f01168101908282118183101715612c9657612c96612c2c565b81604052838152866020858801011115612caf57600080fd5b836020870160208301376000602085830101528094505050505092915050565b600060208284031215612ce157600080fd5b813567ffffffffffffffff811115612cf857600080fd5b612d0484828501612c42565b949350505050565b60008060408385031215612d1f57600080fd5b823567ffffffffffffffff80821115612d3757600080fd5b612d4386838701612c42565b93506020850135915080821115612d5957600080fd5b50612d6685828601612c42565b9150509250929050565b60005b83811015612d8b578181015183820152602001612d73565b50506000910152565b60008151808452612dac816020860160208601612d70565b601f01601f19169290920160200192915050565b60a081526000612dd360a0830188612d94565b8281036020840152612de58188612d94565b90508560408401528281036060840152612dff8186612d94565b91505082151560808301529695505050505050565b600080600080600060a08688031215612e2c57600080fd5b853567ffffffffffffffff80821115612e4457600080fd5b612e5089838a01612c42565b96506020880135915080821115612e6657600080fd5b612e7289838a01612c42565b95506040880135915080821115612e8857600080fd5b612e9489838a01612c42565b9450606088013593506080880135915080821115612eb157600080fd5b50612ebe88828901612c42565b9150509295509295909350565b602081526000612ede6020830184612d94565b9392505050565b60c081526000612ef860c0830189612d94565b8281036020840152612f0a8189612d94565b90508660408401528281036060840152612f248187612d94565b9415156080840152505060a00152949350505050565b6000602080830181845280855180835260408601915060408160051b870101925083870160005b82811015612f8f57603f19888603018452612f7d858351612d94565b94509285019290850190600101612f61565b5092979650505050505050565b60006020808301818452808551808352604092508286019150828160051b87010184880160005b8381101561304757603f19898403018552815160a08151818652612fe982870182612d94565b915050888201518582038a8701526130018282612d94565b9150508782015188860152606080830151868303828801526130238382612d94565b60809485015115159790940196909652505094870194925090860190600101612fc3565b509098975050505050505050565b6000806040838503121561306857600080fd5b823567ffffffffffffffff81111561307f57600080fd5b61308b85828601612c42565b95602094909401359450505050565b600080600080608085870312156130b057600080fd5b843567ffffffffffffffff808211156130c857600080fd5b6130d488838901612c42565b955060208701359150808211156130ea57600080fd5b6130f688838901612c42565b945060408701359350606087013591508082111561311357600080fd5b5061312087828801612c42565b91505092959194509250565b60006020808301818452808551808352604092508286019150828160051b87010184880160005b8381101561304757603f19898403018552815160c0815181865261317982870182612d94565b915050888201518582038a8701526131918282612d94565b9150508782015188860152606080830151868303828801526131b38382612d94565b60808581015115159089015260a09485015194909701939093525050509386019390860190600101613153565b6000602082840312156131f257600080fd5b81356001600160a01b0381168114612ede57600080fd5b60006020828403121561321b57600080fd5b81518015158114612ede57600080fd5b634e487b7160e01b600052602160045260246000fd5b60006020828403121561325357600080fd5b815160058110612ede57600080fd5b6020808252601a908201527f4e6f74206120766572696669656420696e737469747574696f6e000000000000604082015260600190565b600082516132ab818460208701612d70565b9190910192915050565b60208082526015908201527410dbdd5c9cd948191bd95cc81b9bdd08195e1a5cdd605a1b604082015260600190565b600181811c908216806132f857607f821691505b60208210810361331857634e487b7160e01b600052602260045260246000fd5b50919050565b600080835461332c816132e4565b60018281168015613344576001811461335957613388565b60ff1984168752821515830287019450613388565b8760005260208060002060005b8581101561337f5781548a820152908401908201613366565b50505082870194505b50929695505050505050565b601f8211156133de57600081815260208120601f850160051c810160208610156133bb5750805b601f850160051c820191505b818110156133da578281556001016133c7565b5050505b505050565b815167ffffffffffffffff8111156133fd576133fd612c2c565b6134118161340b84546132e4565b84613394565b602080601f831160018114613446576000841561342e5750858301515b600019600386901b1c1916600185901b1785556133da565b600085815260208120601f198616915b8281101561347557888601518255948401946001909101908401613456565b50858210156134935787850151600019600388901b60f8161c191681555b5050505050600190811b01905550565b634e487b7160e01b600052603260045260246000fd5b6000600182016134d957634e487b7160e01b600052601160045260246000fd5b5060010190565b6060815260006134f36060830186612d94565b846020840152828103604084015261350b8185612d94565b9695505050505050565b6040815260006135286040830185612d94565b828103602084015261353a8185612d94565b9594505050505056fea2646970667358221220286a93e79414acc7d3f7ffe0f398ff3e97166878cf265053dadb20841e23d73464736f6c63430008130033",
  "linkReferences": {},
  "deployedLinkReferences": {}
}