{
  "_format": "hh-sol-artifact-1",
  "contractName": "ExamManagement",
  "sourceName": "contracts/ExamManagement.sol",
  "abi": [
    {
      "inputs": [
        {
          "internalType": "address",
          "name": "_identityContractAddress",
          "type": "address"
        }
      ],
      "stateMutability": "nonpayable",
      "type": "constructor"
    },
    {
      "anonymous": false,
      "inputs": [
        {
          "indexed": true,
          "internalType": "bytes32",
          "name": "examId",
          "type": "bytes32"
        },
        {
          "indexed": true,
          "internalType": "address",
          "name": "institution",
          "type": "address"
        },
        {
          "indexed": false,
          "internalType": "string",
          "name": "title",
          "type": "string"
        },
        {
          "indexed": false,
          "internalType": "string",
          "name": "description",
          "type": "string"
        },
        {
          "indexed": false,
          "internalType": "uint256",
          "name": "date",
          "type": "uint256"
        },
        {
          "indexed": false,
          "internalType": "uint256",
          "name": "duration",
          "type": "uint256"
        },
        {
          "indexed": false,
          "internalType": "enum ExamManagement.ExamStatus",
          "name": "status",
          "type": "uint8"
        }
      ],
      "name": "ExamCreated",
      "type": "event"
    },
    {
      "anonymous": false,
      "inputs": [
        {
          "indexed": true,
          "internalType": "bytes32",
          "name": "examId",
          "type": "bytes32"
        },
        {
          "indexed": false,
          "internalType": "string",
          "name": "title",
          "type": "string"
        },
        {
          "indexed": false,
          "internalType": "uint256",
          "name": "date",
          "type": "uint256"
        },
        {
          "indexed": false,
          "internalType": "enum ExamManagement.ExamStatus",
          "name": "status",
          "type": "uint8"
        }
      ],
      "name": "ExamUpdated",
      "type": "event"
    },
    {
      "anonymous": false,
      "inputs": [
        {
          "indexed": true,
          "internalType": "address",
          "name": "previousOwner",
          "type": "address"
        },
        {
          "indexed": true,
          "internalType": "address",
          "name": "newOwner",
          "type": "address"
        }
      ],
      "name": "OwnershipTransferred",
      "type": "event"
    },
    {
      "anonymous": false,
      "inputs": [
        {
          "indexed": false,
          "internalType": "address",
          "name": "account",
          "type": "address"
        }
      ],
      "name": "Paused",
      "type": "event"
    },
    {
      "anonymous": false,
      "inputs": [
        {
          "indexed": true,
          "internalType": "bytes32",
          "name": "examId",
          "type": "bytes32"
        },
        {
          "indexed": true,
          "internalType": "address",
          "name": "student",
          "type": "address"
        }
      ],
      "name": "ResultSubmitted",
      "type": "event"
    },
    {
      "anonymous": false,
      "inputs": [
        {
          "indexed": true,
          "internalType": "bytes32",
          "name": "examId",
          "type": "bytes32"
        },
        {
          "indexed": false,
          "internalType": "address[]",
          "name": "students",
          "type": "address[]"
        }
      ],
      "name": "StudentsRegistered",
      "type": "event"
    },
    {
      "anonymous": false,
      "inputs": [
        {
          "indexed": false,
          "internalType": "address",
          "name": "account",
          "type": "address"
        }
      ],
      "name": "Unpaused",
      "type": "event"
    },
    {
      "inputs": [
        {
          "internalType": "string",
          "name": "title",
          "type": "string"
        },
        {
          "internalType": "string",
          "name": "description",
          "type": "string"
        },
        {
          "internalType": "uint256",
          "name": "examDate",
          "type": "uint256"
        },
        {
          "internalType": "uint256",
          "name": "duration",
          "type": "uint256"
        }
      ],
      "name": "createExam",
      "outputs": [
        {
          "internalType": "bytes32",
          "name": "",
          "type": "bytes32"
        }
      ],
      "stateMutability": "nonpayable",
      "type": "function"
    },
    {
      "inputs": [
        {
          "internalType": "bytes32",
          "name": "",
          "type": "bytes32"
        },
        {
          "internalType": "address",
          "name": "",
          "type": "address"
        }
      ],
      "name": "examResults",
      "outputs": [
        {
          "internalType": "uint256",
          "name": "score",
          "type": "uint256"
        },
        {
          "internalType": "string",
          "name": "grade",
          "type": "string"
        },
        {
          "internalType": "string",
          "name": "notes",
          "type": "string"
        },
        {
          "internalType": "bool",
          "name": "exists",
          "type": "bool"
        }
      ],
      "stateMutability": "view",
      "type": "function"
    },
    {
      "inputs": [
        {
          "internalType": "bytes32",
          "name": "",
          "type": "bytes32"
        }
      ],
      "name": "exams",
      "outputs": [
        {
          "internalType": "address",
          "name": "institution",
          "type": "address"
        },
        {
          "internalType": "string",
          "name": "title",
          "type": "string"
        },
        {
          "internalType": "string",
          "name": "description",
          "type": "string"
        },
        {
          "internalType": "uint256",
          "name": "date",
          "type": "uint256"
        },
        {
          "internalType": "uint256",
          "name": "duration",
          "type": "uint256"
        },
        {
          "internalType": "string",
          "name": "ipfsHash",
          "type": "string"
        },
        {
          "internalType": "bool",
          "name": "exists",
          "type": "bool"
        },
        {
          "internalType": "enum ExamManagement.ExamStatus",
          "name": "status",
          "type": "uint8"
        }
      ],
      "stateMutability": "view",
      "type": "function"
    },
    {
      "inputs": [
        {
          "internalType": "bytes32",
          "name": "examId",
          "type": "bytes32"
        }
      ],
      "name": "getExam",
      "outputs": [
        {
          "components": [
            {
              "internalType": "address",
              "name": "institution",
              "type": "address"
            },
            {
              "internalType": "string",
              "name": "title",
              "type": "string"
            },
            {
              "internalType": "string",
              "name": "description",
              "type": "string"
            },
            {
              "internalType": "uint256",
              "name": "date",
              "type": "uint256"
            },
            {
              "internalType": "uint256",
              "name": "duration",
              "type": "uint256"
            },
            {
              "internalType": "string",
              "name": "ipfsHash",
              "type": "string"
            },
            {
              "internalType": "address[]",
              "name": "students",
              "type": "address[]"
            },
            {
              "internalType": "bool",
              "name": "exists",
              "type": "bool"
            },
            {
              "internalType": "enum ExamManagement.ExamStatus",
              "name": "status",
              "type": "uint8"
            }
          ],
          "internalType": "struct ExamManagement.Exam",
          "name": "",
          "type": "tuple"
        }
      ],
      "stateMutability": "view",
      "type": "function"
    },
    {
      "inputs": [
        {
          "internalType": "bytes32",
          "name": "examId",
          "type": "bytes32"
        },
        {
          "internalType": "address",
          "name": "student",
          "type": "address"
        }
      ],
      "name": "getExamResult",
      "outputs": [
        {
          "internalType": "uint256",
          "name": "score",
          "type": "uint256"
        },
        {
          "internalType": "string",
          "name": "grade",
          "type": "string"
        },
        {
          "internalType": "string",
          "name": "notes",
          "type": "string"
        }
      ],
      "stateMutability": "view",
      "type": "function"
    },
    {
      "inputs": [
        {
          "internalType": "bytes32",
          "name": "examId",
          "type": "bytes32"
        }
      ],
      "name": "getExamStatistics",
      "outputs": [
        {
          "internalType": "uint256",
          "name": "totalStudents",
          "type": "uint256"
        },
        {
          "internalType": "uint256",
          "name": "passRate",
          "type": "uint256"
        },
        {
          "internalType": "uint256",
          "name": "averageScore",
          "type": "uint256"
        }
      ],
      "stateMutability": "view",
      "type": "function"
    },
    {
      "inputs": [
        {
          "internalType": "address",
          "name": "studentAddress",
          "type": "address"
        }
      ],
      "name": "getStudentExamsWithStatus",
      "outputs": [
        {
          "internalType": "bytes32[]",
          "name": "upcomingExams",
          "type": "bytes32[]"
        },
        {
          "internalType": "bytes32[]",
          "name": "inProgressExams",
          "type": "bytes32[]"
        },
        {
          "internalType": "bytes32[]",
          "name": "completedExams",
          "type": "bytes32[]"
        },
        {
          "components": [
            {
              "internalType": "uint256",
              "name": "score",
              "type": "uint256"
            },
            {
              "internalType": "string",
              "name": "grade",
              "type": "string"
            },
            {
              "internalType": "string",
              "name": "notes",
              "type": "string"
            },
            {
              "internalType": "bool",
              "name": "exists",
              "type": "bool"
            }
          ],
          "internalType": "struct ExamManagement.ExamResult[]",
          "name": "completedResults",
          "type": "tuple[]"
        }
      ],
      "stateMutability": "view",
      "type": "function"
    },
    {
      "inputs": [
        {
          "internalType": "address",
          "name": "user",
          "type": "address"
        }
      ],
      "name": "getUserExams",
      "outputs": [
        {
          "internalType": "bytes32[]",
          "name": "",
          "type": "bytes32[]"
        }
      ],
      "stateMutability": "view",
      "type": "function"
    },
    {
      "inputs": [],
      "name": "identityContract",
      "outputs": [
        {
          "internalType": "contract IIdentity",
          "name": "",
          "type": "address"
        }
      ],
      "stateMutability": "view",
      "type": "function"
    },
    {
      "inputs": [
        {
          "internalType": "address",
          "name": "",
          "type": "address"
        },
        {
          "internalType": "uint256",
          "name": "",
          "type": "uint256"
        }
      ],
      "name": "institutionExams",
      "outputs": [
        {
          "internalType": "bytes32",
          "name": "",
          "type": "bytes32"
        }
      ],
      "stateMutability": "view",
      "type": "function"
    },
    {
      "inputs": [],
      "name": "owner",
      "outputs": [
        {
          "internalType": "address",
          "name": "",
          "type": "address"
        }
      ],
      "stateMutability": "view",
      "type": "function"
    },
    {
      "inputs": [],
      "name": "paused",
      "outputs": [
        {
          "internalType": "bool",
          "name": "",
          "type": "bool"
        }
      ],
      "stateMutability": "view",
      "type": "function"
    },
    {
      "inputs": [
        {
          "internalType": "bytes32",
          "name": "examId",
          "type": "bytes32"
        },
        {
          "internalType": "address[]",
          "name": "studentAddresses",
          "type": "address[]"
        }
      ],
      "name": "registerStudentsForExam",
      "outputs": [],
      "stateMutability": "nonpayable",
      "type": "function"
    },
    {
      "inputs": [],
      "name": "renounceOwnership",
      "outputs": [],
      "stateMutability": "nonpayable",
      "type": "function"
    },
    {
      "inputs": [
        {
          "internalType": "address",
          "name": "",
          "type": "address"
        },
        {
          "internalType": "uint256",
          "name": "",
          "type": "uint256"
        }
      ],
      "name": "studentExams",
      "outputs": [
        {
          "internalType": "bytes32",
          "name": "",
          "type": "bytes32"
        }
      ],
      "stateMutability": "view",
      "type": "function"
    },
    {
      "inputs": [
        {
          "internalType": "bytes32",
          "name": "examId",
          "type": "bytes32"
        },
        {
          "internalType": "address",
          "name": "student",
          "type": "address"
        },
        {
          "internalType": "uint256",
          "name": "score",
          "type": "uint256"
        },
        {
          "internalType": "string",
          "name": "grade",
          "type": "string"
        },
        {
          "internalType": "string",
          "name": "notes",
          "type": "string"
        }
      ],
      "name": "submitResult",
      "outputs": [],
      "stateMutability": "nonpayable",
      "type": "function"
    },
    {
      "inputs": [
        {
          "internalType": "address",
          "name": "newOwner",
          "type": "address"
        }
      ],
      "name": "transferOwnership",
      "outputs": [],
      "stateMutability": "nonpayable",
      "type": "function"
    },
    {
      "inputs": [
        {
          "internalType": "bytes32",
          "name": "examId",
          "type": "bytes32"
        },
        {
          "internalType": "string",
          "name": "newTitle",
          "type": "string"
        },
        {
          "internalType": "string",
          "name": "newDescription",
          "type": "string"
        },
        {
          "internalType": "uint256",
          "name": "newDate",
          "type": "uint256"
        },
        {
          "internalType": "uint256",
          "name": "newDuration",
          "type": "uint256"
        },
        {
          "internalType": "bool",
          "name": "newExists",
          "type": "bool"
        }
      ],
      "name": "updateExam",
      "outputs": [],
      "stateMutability": "nonpayable",
      "type": "function"
    }
  ],
  "bytecode": "0x60806040523480156200001157600080fd5b5060405162003a8538038062003a858339810160408190526200003491620000c2565b6200003f3362000072565b6000805460ff60a01b19169055600180546001600160a01b0319166001600160a01b0392909216919091179055620000f4565b600080546001600160a01b038381166001600160a01b0319831681178455604051919092169283917f8be0079c531659141344cd1fd0a4f28419497f9722a3daafe3b4186f6b6457e09190a35050565b600060208284031215620000d557600080fd5b81516001600160a01b0381168114620000ed57600080fd5b9392505050565b61398180620001046000396000f3fe608060405234801561001057600080fd5b50600436106101165760003560e01c8063b6c11da8116100a2578063de303a8d11610071578063de303a8d14610281578063ed480868146102a1578063f2fde38b146102b4578063f87b8b0c146102c7578063fb3548d0146102f557600080fd5b8063b6c11da814610215578063cb28b17d14610228578063d24b911a1461024b578063db1830221461026e57600080fd5b806367031bae116100e957806367031bae146101955780636e6dbb3f146101c0578063715018a6146101d35780638da5cb5b146101dd57806399341a8a146101ee57600080fd5b8063360535ed1461011b57806355dfd350146101445780635c975abb146101655780635d590dde14610182575b600080fd5b61012e610129366004612e3c565b610317565b60405161013b9190612f17565b60405180910390f35b6101576101523660046130a6565b6105fa565b60405190815260200161013b565b600054600160a01b900460ff16604051901515815260200161013b565b610157610190366004613131565b6109ea565b6001546101a8906001600160a01b031681565b6040516001600160a01b03909116815260200161013b565b6101576101ce366004613131565b610a1b565b6101db610a37565b005b6000546001600160a01b03166101a8565b6102016101fc366004612e3c565b610a4b565b60405161013b98979695949392919061315b565b6101db6102233660046131d9565b610c34565b61023b610236366004613261565b610ee4565b60405161013b949392919061328d565b61025e6102593660046132cc565b61102b565b60405161013b949392919061331e565b6101db61027c3660046133f4565b611bb7565b61029461028f3660046132cc565b612142565b60405161013b91906134ad565b6101db6102af3660046134ce565b61231b565b6101db6102c23660046132cc565b612562565b6102da6102d5366004612e3c565b6125db565b6040805193845260208401929092529082015260600161013b565b610308610303366004613261565b612ad4565b60405161013b93929190613562565b61031f612d5b565b60008281526002602090815260408083208151610120810190925280546001600160a01b03168252600181018054929391929184019161035e90613597565b80601f016020809104026020016040519081016040528092919081815260200182805461038a90613597565b80156103d75780601f106103ac576101008083540402835291602001916103d7565b820191906000526020600020905b8154815290600101906020018083116103ba57829003601f168201915b505050505081526020016002820180546103f090613597565b80601f016020809104026020016040519081016040528092919081815260200182805461041c90613597565b80156104695780601f1061043e57610100808354040283529160200191610469565b820191906000526020600020905b81548152906001019060200180831161044c57829003601f168201915b50505050508152602001600382015481526020016004820154815260200160058201805461049690613597565b80601f01602080910402602001604051908101604052809291908181526020018280546104c290613597565b801561050f5780601f106104e45761010080835404028352916020019161050f565b820191906000526020600020905b8154815290600101906020018083116104f257829003601f168201915b505050505081526020016006820180548060200260200160405190810160405280929190818152602001828054801561057157602002820191906000526020600020905b81546001600160a01b03168152600190910190602001808311610553575b5050509183525050600782015460ff808216151560208401526040909201916101009091041660028111156105a8576105a8612edf565b60028111156105b9576105b9612edf565b90525090506105c781612c60565b81610100019060028111156105de576105de612edf565b908160028111156105f1576105f1612edf565b90525092915050565b60006002600154604051632782085160e01b81523360048201526001600160a01b0390911690632782085190602401602060405180830381865afa158015610646573d6000803e3d6000fd5b505050506040513d601f19601f8201168201806040525081019061066a91906135cb565b600481111561067b5761067b612edf565b146106a15760405162461bcd60e51b8152600401610698906135ec565b60405180910390fd5b600154604051633da1c0c360e01b81523360048201526001600160a01b0390911690633da1c0c390602401602060405180830381865afa1580156106e9573d6000803e3d6000fd5b505050506040513d601f19601f8201168201806040525081019061070d9190613623565b6107295760405162461bcd60e51b815260040161069890613640565b610737600680546001019055565b600061074260065490565b6040805160208101929092526bffffffffffffffffffffffff193360601b16908201526054016040516020818303038152906040528051906020012090506000428510156107d25760405162461bcd60e51b815260206004820152601f60248201527f4578616d2064617465206d75737420626520696e2074686520667574757265006044820152606401610698565b4285036107e1575060016107e5565b5060005b604051806101200160405280336001600160a01b03168152602001888152602001878152602001868152602001858152602001604051806020016040528060008152508152602001600067ffffffffffffffff81111561084757610847612fef565b604051908082528060200260200182016040528015610870578160200160208202803683370190505b5081526001602082015260400182600281111561088f5761088f612edf565b90526000838152600260209081526040909120825181546001600160a01b0319166001600160a01b039091161781559082015160018201906108d190826136c6565b50604082015160028201906108e690826136c6565b50606082015160038201556080820151600482015560a0820151600582019061090f90826136c6565b5060c0820151805161092b916006840191602090910190612dc2565b5060e082015160078201805491151560ff19831681178255610100808601519361ff001990921661ffff19909216919091179083600281111561097057610970612edf565b021790555050336000818152600460209081526040808320805460018101825590845291909220018590555190915083907fc0097efdb6e91d1e588e5fb3496468743b1223abb0e946409697001f6d9ac355906109d6908b908b908b908b908990613786565b60405180910390a35090505b949350505050565b60056020528160005260406000208181548110610a0657600080fd5b90600052602060002001600091509150505481565b60046020528160005260406000208181548110610a0657600080fd5b610a3f612cb1565b610a496000612d0b565b565b600260205260009081526040902080546001820180546001600160a01b039092169291610a7790613597565b80601f0160208091040260200160405190810160405280929190818152602001828054610aa390613597565b8015610af05780601f10610ac557610100808354040283529160200191610af0565b820191906000526020600020905b815481529060010190602001808311610ad357829003601f168201915b505050505090806002018054610b0590613597565b80601f0160208091040260200160405190810160405280929190818152602001828054610b3190613597565b8015610b7e5780601f10610b5357610100808354040283529160200191610b7e565b820191906000526020600020905b815481529060010190602001808311610b6157829003601f168201915b505050505090806003015490806004015490806005018054610b9f90613597565b80601f0160208091040260200160405190810160405280929190818152602001828054610bcb90613597565b8015610c185780601f10610bed57610100808354040283529160200191610c18565b820191906000526020600020905b815481529060010190602001808311610bfb57829003601f168201915b5050506007909301549192505060ff8082169161010090041688565b600154604051632782085160e01b81523360048201526002916001600160a01b031690632782085190602401602060405180830381865afa158015610c7d573d6000803e3d6000fd5b505050506040513d601f19601f82011682018060405250810190610ca191906135cb565b6004811115610cb257610cb2612edf565b14610ccf5760405162461bcd60e51b8152600401610698906135ec565b600154604051633da1c0c360e01b81523360048201526001600160a01b0390911690633da1c0c390602401602060405180830381865afa158015610d17573d6000803e3d6000fd5b505050506040513d601f19601f82011682018060405250810190610d3b9190613623565b610d575760405162461bcd60e51b815260040161069890613640565b600085815260026020526040902060070154859060ff16610d8a5760405162461bcd60e51b8152600401610698906137c7565b60015460405163281e79a360e11b81523360048201526001600160a01b0387811660248301529091169063503cf34690604401602060405180830381865afa158015610dda573d6000803e3d6000fd5b505050506040513d601f19601f82011682018060405250810190610dfe9190613623565b610e1a5760405162461bcd60e51b8152600401610698906137f4565b60408051608081018252858152602080820186815282840186905260016060840181905260008b8152600384528581206001600160a01b038c168252909352939091208251815590519192909190820190610e7590826136c6565b5060408201516002820190610e8a90826136c6565b50606091909101516003909101805460ff19169115159190911790556040516001600160a01b0386169087907ff97d37817a3016d675a5cf7d2f08c621bf2ace42e26029a856fefb5b538ef2f890600090a3505050505050565b600360209081526000928352604080842090915290825290208054600182018054919291610f1190613597565b80601f0160208091040260200160405190810160405280929190818152602001828054610f3d90613597565b8015610f8a5780601f10610f5f57610100808354040283529160200191610f8a565b820191906000526020600020905b815481529060010190602001808311610f6d57829003601f168201915b505050505090806002018054610f9f90613597565b80601f0160208091040260200160405190810160405280929190818152602001828054610fcb90613597565b80156110185780601f10610fed57610100808354040283529160200191611018565b820191906000526020600020905b815481529060010190602001808311610ffb57829003601f168201915b5050506003909301549192505060ff1684565b606080808060018054604051632782085160e01b81526001600160a01b03888116600483015290911690632782085190602401602060405180830381865afa15801561107b573d6000803e3d6000fd5b505050506040513d601f19601f8201168201806040525081019061109f91906135cb565b60048111156110b0576110b0612edf565b146110fd5760405162461bcd60e51b815260206004820152601860248201527f41646472657373206973206e6f7420612073747564656e7400000000000000006044820152606401610698565b6001600160a01b03851660009081526005602090815260408083208054825181850281018501909352808352919290919083018282801561115d57602002820191906000526020600020905b815481526020019060010190808311611149575b505050505090506000806000805b84518110156114ec5760006002600087848151811061118c5761118c61383f565b60200260200101518152602001908152602001600020604051806101200160405290816000820160009054906101000a90046001600160a01b03166001600160a01b03166001600160a01b031681526020016001820180546111ed90613597565b80601f016020809104026020016040519081016040528092919081815260200182805461121990613597565b80156112665780601f1061123b57610100808354040283529160200191611266565b820191906000526020600020905b81548152906001019060200180831161124957829003601f168201915b5050505050815260200160028201805461127f90613597565b80601f01602080910402602001604051908101604052809291908181526020018280546112ab90613597565b80156112f85780601f106112cd576101008083540402835291602001916112f8565b820191906000526020600020905b8154815290600101906020018083116112db57829003601f168201915b50505050508152602001600382015481526020016004820154815260200160058201805461132590613597565b80601f016020809104026020016040519081016040528092919081815260200182805461135190613597565b801561139e5780601f106113735761010080835404028352916020019161139e565b820191906000526020600020905b81548152906001019060200180831161138157829003601f168201915b505050505081526020016006820180548060200260200160405190810160405280929190818152602001828054801561140057602002820191906000526020600020905b81546001600160a01b031681526001909101906020018083116113e2575b5050509183525050600782015460ff8082161515602084015260409092019161010090910416600281111561143757611437612edf565b600281111561144857611448612edf565b9052509050600061145882612c60565b9050600081600281111561146e5761146e612edf565b03611485578561147d8161386b565b9650506114d7565b600181600281111561149957611499612edf565b036114b057846114a88161386b565b9550506114d7565b60028160028111156114c4576114c4612edf565b036114d757836114d38161386b565b9450505b505080806114e49061386b565b91505061116b565b508267ffffffffffffffff81111561150657611506612fef565b60405190808252806020026020018201604052801561152f578160200160208202803683370190505b5097508167ffffffffffffffff81111561154b5761154b612fef565b604051908082528060200260200182016040528015611574578160200160208202803683370190505b5096508067ffffffffffffffff81111561159057611590612fef565b6040519080825280602002602001820160405280156115b9578160200160208202803683370190505b5095508067ffffffffffffffff8111156115d5576115d5612fef565b60405190808252806020026020018201604052801561163357816020015b61162060405180608001604052806000815260200160608152602001606081526020016000151581525090565b8152602001906001900390816115f35790505b50945060009250600091506000905060005b8451811015611bab5760008582815181106116625761166261383f565b60209081029190910181015160008181526002835260408082208151610120810190925280546001600160a01b0316825260018101805494965092949193909291840191906116b090613597565b80601f01602080910402602001604051908101604052809291908181526020018280546116dc90613597565b80156117295780601f106116fe57610100808354040283529160200191611729565b820191906000526020600020905b81548152906001019060200180831161170c57829003601f168201915b5050505050815260200160028201805461174290613597565b80601f016020809104026020016040519081016040528092919081815260200182805461176e90613597565b80156117bb5780601f10611790576101008083540402835291602001916117bb565b820191906000526020600020905b81548152906001019060200180831161179e57829003601f168201915b5050505050815260200160038201548152602001600482015481526020016005820180546117e890613597565b80601f016020809104026020016040519081016040528092919081815260200182805461181490613597565b80156118615780601f1061183657610100808354040283529160200191611861565b820191906000526020600020905b81548152906001019060200180831161184457829003601f168201915b50505050508152602001600682018054806020026020016040519081016040528092919081815260200182805480156118c357602002820191906000526020600020905b81546001600160a01b031681526001909101906020018083116118a5575b5050509183525050600782015460ff808216151560208401526040909201916101009091041660028111156118fa576118fa612edf565b600281111561190b5761190b612edf565b9052509050600061191b82612c60565b9050600081600281111561193157611931612edf565b0361196657828c88815181106119495761194961383f565b60209081029190910101528661195e8161386b565b975050611b95565b600181600281111561197a5761197a612edf565b036119af57828b87815181106119925761199261383f565b6020908102919091010152856119a78161386b565b965050611b95565b60028160028111156119c3576119c3612edf565b03611b9557828a86815181106119db576119db61383f565b6020026020010181815250506003600084815260200190815260200160002060008e6001600160a01b03166001600160a01b0316815260200190815260200160002060405180608001604052908160008201548152602001600182018054611a4290613597565b80601f0160208091040260200160405190810160405280929190818152602001828054611a6e90613597565b8015611abb5780601f10611a9057610100808354040283529160200191611abb565b820191906000526020600020905b815481529060010190602001808311611a9e57829003601f168201915b50505050508152602001600282018054611ad490613597565b80601f0160208091040260200160405190810160405280929190818152602001828054611b0090613597565b8015611b4d5780601f10611b2257610100808354040283529160200191611b4d565b820191906000526020600020905b815481529060010190602001808311611b3057829003601f168201915b50505091835250506003919091015460ff16151560209091015289518a9087908110611b7b57611b7b61383f565b60200260200101819052508480611b919061386b565b9550505b5050508080611ba39061386b565b915050611645565b50505050509193509193565b600154604051632782085160e01b81523360048201526002916001600160a01b031690632782085190602401602060405180830381865afa158015611c00573d6000803e3d6000fd5b505050506040513d601f19601f82011682018060405250810190611c2491906135cb565b6004811115611c3557611c35612edf565b14611c525760405162461bcd60e51b8152600401610698906135ec565b600154604051633da1c0c360e01b81523360048201526001600160a01b0390911690633da1c0c390602401602060405180830381865afa158015611c9a573d6000803e3d6000fd5b505050506040513d601f19601f82011682018060405250810190611cbe9190613623565b611cda5760405162461bcd60e51b815260040161069890613640565b600082815260026020526040902060070154829060ff16611d0d5760405162461bcd60e51b8152600401610698906137c7565b6000825111611d5e5760405162461bcd60e51b815260206004820152601c60248201527f53747564656e74206c6973742063616e6e6f7420626520656d707479000000006044820152606401610698565b60005b8251811015612104576000838281518110611d7e57611d7e61383f565b6020908102919091010151600154604051630e666e4960e01b81526001600160a01b038084166004830152929350911690630e666e4990602401602060405180830381865afa158015611dd5573d6000803e3d6000fd5b505050506040513d601f19601f82011682018060405250810190611df99190613623565b611e505760405162461bcd60e51b815260206004820152602260248201527f53747564656e7420646f6573206e6f7420657869737420696e204964656e7469604482015261747960f01b6064820152608401610698565b60018054604051632782085160e01b81526001600160a01b03848116600483015290911690632782085190602401602060405180830381865afa158015611e9b573d6000803e3d6000fd5b505050506040513d601f19601f82011682018060405250810190611ebf91906135cb565b6004811115611ed057611ed0612edf565b14611f275760405162461bcd60e51b815260206004820152602160248201527f55736572206973206e6f7420612073747564656e7420696e204964656e7469746044820152607960f81b6064820152608401610698565b60015460405163281e79a360e11b81523360048201526001600160a01b0383811660248301529091169063503cf34690604401602060405180830381865afa158015611f77573d6000803e3d6000fd5b505050506040513d601f19601f82011682018060405250810190611f9b9190613623565b611fb75760405162461bcd60e51b8152600401610698906137f4565b6000805b6001600160a01b038316600090815260056020526040902054811015612033576001600160a01b03831660009081526005602052604090208054889190839081106120085761200861383f565b9060005260206000200154036120215760019150612033565b8061202b8161386b565b915050611fbb565b5080612096576001600160a01b0382166000818152600560209081526040808320805460018181018355918552838520018b90558a84526002835290832060060180549182018155835291200180546001600160a01b03191690911790556120ef565b60405162461bcd60e51b815260206004820152602860248201527f53747564656e7420616c7265616479207265676973746572656420666f722074604482015267686973206578616d60c01b6064820152608401610698565b505080806120fc9061386b565b915050611d61565b50827f70b162532c2b8935bbf6a4aa9c3d8f91fe22c1aa0c8e5d3d34264e9b7570e0c5836040516121359190613884565b60405180910390a2505050565b600154604051632782085160e01b81526001600160a01b038381166004830152606092600092911690632782085190602401602060405180830381865afa158015612191573d6000803e3d6000fd5b505050506040513d601f19601f820116820180604052508101906121b591906135cb565b905060028160048111156121cb576121cb612edf565b0361223b576001600160a01b0383166000908152600460209081526040918290208054835181840281018401909452808452909183018282801561222e57602002820191906000526020600020905b81548152602001906001019080831161221a575b5050505050915050919050565b600181600481111561224f5761224f612edf565b036122bd576001600160a01b0383166000908152600560209081526040918290208054835181840281018401909452808452909183018282801561222e576020028201919060005260206000209081548152602001906001019080831161221a575050505050915050919050565b60405162461bcd60e51b815260206004820152602760248201527f556e737570706f7274656420726f6c65206f72207573657220646f6573206e6f6044820152661d08195e1a5cdd60ca1b6064820152608401610698565b50919050565b600154604051632782085160e01b81523360048201526002916001600160a01b031690632782085190602401602060405180830381865afa158015612364573d6000803e3d6000fd5b505050506040513d601f19601f8201168201806040525081019061238891906135cb565b600481111561239957612399612edf565b146123b65760405162461bcd60e51b8152600401610698906135ec565b600154604051633da1c0c360e01b81523360048201526001600160a01b0390911690633da1c0c390602401602060405180830381865afa1580156123fe573d6000803e3d6000fd5b505050506040513d601f19601f820116820180604052508101906124229190613623565b61243e5760405162461bcd60e51b815260040161069890613640565b600086815260026020526040902060070154869060ff166124715760405162461bcd60e51b8152600401610698906137c7565b60008781526002602052604090206001810161248d88826136c6565b506002810161249c87826136c6565b50600381018590556004810184905560078101805460ff1916841515179055428510156124e1576007810180546002919061ff001916610100835b021790555061250e565b428503612500576007810180546001919061ff001916610100836124d7565b60078101805461ff00191690555b600781015460405189917f103ef11ee39cd75b882042498ee9b97ead7c740be88e74574294214795d0232491612550918b918a91610100900460ff16906138d1565b60405180910390a25050505050505050565b61256a612cb1565b6001600160a01b0381166125cf5760405162461bcd60e51b815260206004820152602660248201527f4f776e61626c653a206e6577206f776e657220697320746865207a65726f206160448201526564647265737360d01b6064820152608401610698565b6125d881612d0b565b50565b60008181526002602090815260408083208151610120810190925280546001600160a01b03168252600181018054859485948594909390929184019161262090613597565b80601f016020809104026020016040519081016040528092919081815260200182805461264c90613597565b80156126995780601f1061266e57610100808354040283529160200191612699565b820191906000526020600020905b81548152906001019060200180831161267c57829003601f168201915b505050505081526020016002820180546126b290613597565b80601f01602080910402602001604051908101604052809291908181526020018280546126de90613597565b801561272b5780601f106127005761010080835404028352916020019161272b565b820191906000526020600020905b81548152906001019060200180831161270e57829003601f168201915b50505050508152602001600382015481526020016004820154815260200160058201805461275890613597565b80601f016020809104026020016040519081016040528092919081815260200182805461278490613597565b80156127d15780601f106127a6576101008083540402835291602001916127d1565b820191906000526020600020905b8154815290600101906020018083116127b457829003601f168201915b505050505081526020016006820180548060200260200160405190810160405280929190818152602001828054801561283357602002820191906000526020600020905b81546001600160a01b03168152600190910190602001808311612815575b5050509183525050600782015460ff8082161515602084015260409092019161010090910416600281111561286a5761286a612edf565b600281111561287b5761287b612edf565b905250905060008080805b8460c0015151811015612a8357600089815260036020526040812060c08701518051839190859081106128bb576128bb61383f565b60200260200101516001600160a01b03166001600160a01b031681526020019081526020016000206040518060800160405290816000820154815260200160018201805461290890613597565b80601f016020809104026020016040519081016040528092919081815260200182805461293490613597565b80156129815780601f1061295657610100808354040283529160200191612981565b820191906000526020600020905b81548152906001019060200180831161296457829003601f168201915b5050505050815260200160028201805461299a90613597565b80601f01602080910402602001604051908101604052809291908181526020018280546129c690613597565b8015612a135780601f106129e857610100808354040283529160200191612a13565b820191906000526020600020905b8154815290600101906020018083116129f657829003601f168201915b50505091835250506003919091015460ff161515602090910152606081015190915015612a705784612a448161386b565b8251909650612a549150846138f9565b9250603c816000015110612a705783612a6c8161386b565b9450505b5080612a7b8161386b565b915050612886565b508260008411612a94576000612aaa565b83612aa0846064613912565b612aaa9190613929565b60008511612ab9576000612ac3565b612ac38584613929565b965096509650505050509193909250565b60008281526003602090815260408083206001600160a01b0385168452825280832081516080810190925280548252600181018054606094859487949093909291840191612b2190613597565b80601f0160208091040260200160405190810160405280929190818152602001828054612b4d90613597565b8015612b9a5780601f10612b6f57610100808354040283529160200191612b9a565b820191906000526020600020905b815481529060010190602001808311612b7d57829003601f168201915b50505050508152602001600282018054612bb390613597565b80601f0160208091040260200160405190810160405280929190818152602001828054612bdf90613597565b8015612c2c5780601f10612c0157610100808354040283529160200191612c2c565b820191906000526020600020905b815481529060010190602001808311612c0f57829003601f168201915b50505091835250506003919091015460ff161515602091820152815190820151604090920151909891975095509350505050565b60008160600151421015612c7657506000919050565b6080820151612c8690603c613912565b8260600151612c9591906138f9565b421015612ca457506001919050565b506002919050565b919050565b6000546001600160a01b03163314610a495760405162461bcd60e51b815260206004820181905260248201527f4f776e61626c653a2063616c6c6572206973206e6f7420746865206f776e65726044820152606401610698565b600080546001600160a01b038381166001600160a01b0319831681178455604051919092169283917f8be0079c531659141344cd1fd0a4f28419497f9722a3daafe3b4186f6b6457e09190a35050565b60405180610120016040528060006001600160a01b0316815260200160608152602001606081526020016000815260200160008152602001606081526020016060815260200160001515815260200160006002811115612dbd57612dbd612edf565b905290565b828054828255906000526020600020908101928215612e17579160200282015b82811115612e1757825182546001600160a01b0319166001600160a01b03909116178255602090920191600190910190612de2565b50612e23929150612e27565b5090565b5b80821115612e235760008155600101612e28565b600060208284031215612e4e57600080fd5b5035919050565b6000815180845260005b81811015612e7b57602081850181015186830182015201612e5f565b506000602082860101526020601f19601f83011685010191505092915050565b600081518084526020808501945080840160005b83811015612ed45781516001600160a01b031687529582019590820190600101612eaf565b509495945050505050565b634e487b7160e01b600052602160045260246000fd5b60038110612f1357634e487b7160e01b600052602160045260246000fd5b9052565b60208152612f316020820183516001600160a01b03169052565b60006020830151610120806040850152612f4f610140850183612e55565b91506040850151601f1980868503016060870152612f6d8483612e55565b935060608701516080870152608087015160a087015260a08701519150808685030160c0870152612f9e8483612e55565b935060c08701519150808685030160e087015250612fbc8382612e9b565b92505060e0850151610100612fd48187018315159052565b8601519050612fe585830182612ef5565b5090949350505050565b634e487b7160e01b600052604160045260246000fd5b604051601f8201601f1916810167ffffffffffffffff8111828210171561302e5761302e612fef565b604052919050565b600082601f83011261304757600080fd5b813567ffffffffffffffff81111561306157613061612fef565b613074601f8201601f1916602001613005565b81815284602083860101111561308957600080fd5b816020850160208301376000918101602001919091529392505050565b600080600080608085870312156130bc57600080fd5b843567ffffffffffffffff808211156130d457600080fd5b6130e088838901613036565b955060208701359150808211156130f657600080fd5b5061310387828801613036565b949794965050505060408301359260600135919050565b80356001600160a01b0381168114612cac57600080fd5b6000806040838503121561314457600080fd5b61314d8361311a565b946020939093013593505050565b6001600160a01b0389168152610100602082018190526000906131808382018b612e55565b90508281036040840152613194818a612e55565b905087606084015286608084015282810360a08401526131b48187612e55565b91505083151560c08301526131cc60e0830184612ef5565b9998505050505050505050565b600080600080600060a086880312156131f157600080fd5b853594506132016020870161311a565b935060408601359250606086013567ffffffffffffffff8082111561322557600080fd5b61323189838a01613036565b9350608088013591508082111561324757600080fd5b5061325488828901613036565b9150509295509295909350565b6000806040838503121561327457600080fd5b823591506132846020840161311a565b90509250929050565b8481526080602082015260006132a66080830186612e55565b82810360408401526132b88186612e55565b915050821515606083015295945050505050565b6000602082840312156132de57600080fd5b6132e78261311a565b9392505050565b600081518084526020808501945080840160005b83811015612ed457815187529582019590820190600101613302565b60006080808352613331818401886132ee565b60208482038186015261334482896132ee565b915060408583038187015261335983896132ee565b92506060868403818801528388518086528486019150848160051b870101858b0160005b838110156133e057601f19898403018552815180518452888101518b8a8601526133a98c860182612e55565b9050888201518582038a8701526133c08282612e55565b92890151151595890195909552509488019492509087019060010161337d565b50909e9d5050505050505050505050505050565b6000806040838503121561340757600080fd5b8235915060208084013567ffffffffffffffff8082111561342757600080fd5b818601915086601f83011261343b57600080fd5b81358181111561344d5761344d612fef565b8060051b915061345e848301613005565b818152918301840191848101908984111561347857600080fd5b938501935b8385101561349d5761348e8561311a565b8252938501939085019061347d565b8096505050505050509250929050565b6020815260006132e760208301846132ee565b80151581146125d857600080fd5b60008060008060008060c087890312156134e757600080fd5b86359550602087013567ffffffffffffffff8082111561350657600080fd5b6135128a838b01613036565b9650604089013591508082111561352857600080fd5b5061353589828a01613036565b945050606087013592506080870135915060a0870135613554816134c0565b809150509295509295509295565b83815260606020820152600061357b6060830185612e55565b828103604084015261358d8185612e55565b9695505050505050565b600181811c908216806135ab57607f821691505b60208210810361231557634e487b7160e01b600052602260045260246000fd5b6000602082840312156135dd57600080fd5b8151600581106132e757600080fd5b6020808252601c908201527f4e6f742061207265676973746572656420696e737469747574696f6e00000000604082015260600190565b60006020828403121561363557600080fd5b81516132e7816134c0565b6020808252601b908201527f496e737469747574696f6e206973206e6f742076657269666965640000000000604082015260600190565b601f8211156136c157600081815260208120601f850160051c8101602086101561369e5750805b601f850160051c820191505b818110156136bd578281556001016136aa565b5050505b505050565b815167ffffffffffffffff8111156136e0576136e0612fef565b6136f4816136ee8454613597565b84613677565b602080601f83116001811461372957600084156137115750858301515b600019600386901b1c1916600185901b1785556136bd565b600085815260208120601f198616915b8281101561375857888601518255948401946001909101908401613739565b50858210156137765787850151600019600388901b60f8161c191681555b5050505050600190811b01905550565b60a08152600061379960a0830188612e55565b82810360208401526137ab8188612e55565b91505084604083015283606083015261358d6080830184612ef5565b602080825260139082015272115e185b48191bd95cc81b9bdd08195e1a5cdd606a1b604082015260600190565b6020808252602b908201527f53747564656e74206973206e6f7420656e726f6c6c656420696e20746869732060408201526a34b739ba34ba3aba34b7b760a91b606082015260800190565b634e487b7160e01b600052603260045260246000fd5b634e487b7160e01b600052601160045260246000fd5b60006001820161387d5761387d613855565b5060010190565b6020808252825182820181905260009190848201906040850190845b818110156138c55783516001600160a01b0316835292840192918401916001016138a0565b50909695505050505050565b6060815260006138e46060830186612e55565b90508360208301526109e26040830184612ef5565b8082018082111561390c5761390c613855565b92915050565b808202811582820484141761390c5761390c613855565b60008261394657634e487b7160e01b600052601260045260246000fd5b50049056fea2646970667358221220b0b3a00076aa8c006297b3816b4946b3dc82b498169f4e9b953645dbad6113fe64736f6c63430008130033",
  "linkReferences": {},
  "deployedLinkReferences": {}
}