{
  "_format": "hh-sol-artifact-1",
  "contractName": "Identity",
  "sourceName": "contracts/Identity.sol",
  "abi": [
    {
      "inputs": [],
      "stateMutability": "nonpayable",
      "type": "constructor"
    },
    {
      "anonymous": false,
      "inputs": [
        {
          "indexed": true,
          "internalType": "address",
          "name": "admin",
          "type": "address"
        }
      ],
      "name": "AdminAdded",
      "type": "event"
    },
    {
      "anonymous": false,
      "inputs": [
        {
          "indexed": true,
          "internalType": "address",
          "name": "admin",
          "type": "address"
        }
      ],
      "name": "AdminRemoved",
      "type": "event"
    },
    {
      "anonymous": false,
      "inputs": [
        {
          "indexed": true,
          "internalType": "address",
          "name": "previousOwner",
          "type": "address"
        },
        {
          "indexed": true,
          "internalType": "address",
          "name": "newOwner",
          "type": "address"
        }
      ],
      "name": "OwnershipTransferred",
      "type": "event"
    },
    {
      "anonymous": false,
      "inputs": [
        {
          "indexed": false,
          "internalType": "address",
          "name": "account",
          "type": "address"
        }
      ],
      "name": "Paused",
      "type": "event"
    },
    {
      "anonymous": false,
      "inputs": [
        {
          "indexed": false,
          "internalType": "address",
          "name": "account",
          "type": "address"
        }
      ],
      "name": "Unpaused",
      "type": "event"
    },
    {
      "anonymous": false,
      "inputs": [
        {
          "indexed": true,
          "internalType": "address",
          "name": "userAddress",
          "type": "address"
        },
        {
          "indexed": true,
          "internalType": "enum Identity.UserRole",
          "name": "role",
          "type": "uint8"
        }
      ],
      "name": "UserRegistered",
      "type": "event"
    },
    {
      "anonymous": false,
      "inputs": [
        {
          "indexed": true,
          "internalType": "address",
          "name": "user",
          "type": "address"
        },
        {
          "indexed": false,
          "internalType": "enum Identity.UserRole",
          "name": "oldRole",
          "type": "uint8"
        },
        {
          "indexed": false,
          "internalType": "enum Identity.UserRole",
          "name": "newRole",
          "type": "uint8"
        }
      ],
      "name": "UserRoleUpdated",
      "type": "event"
    },
    {
      "anonymous": false,
      "inputs": [
        {
          "indexed": true,
          "internalType": "address",
          "name": "userAddress",
          "type": "address"
        }
      ],
      "name": "UserVerified",
      "type": "event"
    },
    {
      "inputs": [
        {
          "internalType": "address",
          "name": "_newAdmin",
          "type": "address"
        },
        {
          "internalType": "string",
          "name": "_email",
          "type": "string"
        }
      ],
      "name": "addAdmin",
      "outputs": [],
      "stateMutability": "nonpayable",
      "type": "function"
    },
    {
      "inputs": [
        {
          "internalType": "address[]",
          "name": "_students",
          "type": "address[]"
        }
      ],
      "name": "addStudents",
      "outputs": [],
      "stateMutability": "nonpayable",
      "type": "function"
    },
    {
      "inputs": [
        {
          "internalType": "address",
          "name": "",
          "type": "address"
        }
      ],
      "name": "admins",
      "outputs": [
        {
          "internalType": "bool",
          "name": "",
          "type": "bool"
        }
      ],
      "stateMutability": "view",
      "type": "function"
    },
    {
      "inputs": [
        {
          "internalType": "address",
          "name": "_admin",
          "type": "address"
        }
      ],
      "name": "getAdminData",
      "outputs": [
        {
          "components": [
            {
              "internalType": "address",
              "name": "userAddress",
              "type": "address"
            },
            {
              "internalType": "string",
              "name": "email",
              "type": "string"
            },
            {
              "internalType": "bool",
              "name": "isActive",
              "type": "bool"
            },
            {
              "internalType": "uint256",
              "name": "addedAt",
              "type": "uint256"
            }
          ],
          "internalType": "struct Identity.Admin",
          "name": "",
          "type": "tuple"
        }
      ],
      "stateMutability": "view",
      "type": "function"
    },
    {
      "inputs": [],
      "name": "getAllAdmins",
      "outputs": [
        {
          "components": [
            {
              "internalType": "address",
              "name": "userAddress",
              "type": "address"
            },
            {
              "internalType": "string",
              "name": "email",
              "type": "string"
            },
            {
              "internalType": "bool",
              "name": "isActive",
              "type": "bool"
            },
            {
              "internalType": "uint256",
              "name": "addedAt",
              "type": "uint256"
            }
          ],
          "internalType": "struct Identity.Admin[]",
          "name": "",
          "type": "tuple[]"
        }
      ],
      "stateMutability": "view",
      "type": "function"
    },
    {
      "inputs": [],
      "name": "getAllEmployers",
      "outputs": [
        {
          "components": [
            {
              "internalType": "address",
              "name": "userAddress",
              "type": "address"
            },
            {
              "internalType": "string",
              "name": "companyName",
              "type": "string"
            },
            {
              "internalType": "string",
              "name": "location",
              "type": "string"
            },
            {
              "internalType": "string",
              "name": "phoneNumber",
              "type": "string"
            },
            {
              "internalType": "string",
              "name": "email",
              "type": "string"
            },
            {
              "internalType": "string",
              "name": "website",
              "type": "string"
            },
            {
              "internalType": "bool",
              "name": "isVerified",
              "type": "bool"
            }
          ],
          "internalType": "struct Identity.Employer[]",
          "name": "",
          "type": "tuple[]"
        }
      ],
      "stateMutability": "view",
      "type": "function"
    },
    {
      "inputs": [],
      "name": "getAllInstitutions",
      "outputs": [
        {
          "components": [
            {
              "internalType": "address",
              "name": "userAddress",
              "type": "address"
            },
            {
              "internalType": "string",
              "name": "name",
              "type": "string"
            },
            {
              "internalType": "string",
              "name": "location",
              "type": "string"
            },
            {
              "internalType": "string",
              "name": "phoneNumber",
              "type": "string"
            },
            {
              "internalType": "string",
              "name": "email",
              "type": "string"
            },
            {
              "internalType": "string",
              "name": "website",
              "type": "string"
            },
            {
              "internalType": "uint8",
              "name": "status",
              "type": "uint8"
            },
            {
              "internalType": "bool",
              "name": "isVerified",
              "type": "bool"
            }
          ],
          "internalType": "struct Identity.Institution[]",
          "name": "",
          "type": "tuple[]"
        }
      ],
      "stateMutability": "view",
      "type": "function"
    },
    {
      "inputs": [
        {
          "internalType": "address",
          "name": "_employerAddress",
          "type": "address"
        }
      ],
      "name": "getEmployerData",
      "outputs": [
        {
          "components": [
            {
              "internalType": "address",
              "name": "userAddress",
              "type": "address"
            },
            {
              "internalType": "string",
              "name": "companyName",
              "type": "string"
            },
            {
              "internalType": "string",
              "name": "location",
              "type": "string"
            },
            {
              "internalType": "string",
              "name": "phoneNumber",
              "type": "string"
            },
            {
              "internalType": "string",
              "name": "email",
              "type": "string"
            },
            {
              "internalType": "string",
              "name": "website",
              "type": "string"
            },
            {
              "internalType": "bool",
              "name": "isVerified",
              "type": "bool"
            }
          ],
          "internalType": "struct Identity.Employer",
          "name": "",
          "type": "tuple"
        }
      ],
      "stateMutability": "view",
      "type": "function"
    },
    {
      "inputs": [
        {
          "internalType": "address",
          "name": "_institutionAddress",
          "type": "address"
        }
      ],
      "name": "getInstitutionData",
      "outputs": [
        {
          "components": [
            {
              "internalType": "address",
              "name": "userAddress",
              "type": "address"
            },
            {
              "internalType": "string",
              "name": "name",
              "type": "string"
            },
            {
              "internalType": "string",
              "name": "location",
              "type": "string"
            },
            {
              "internalType": "string",
              "name": "phoneNumber",
              "type": "string"
            },
            {
              "internalType": "string",
              "name": "email",
              "type": "string"
            },
            {
              "internalType": "string",
              "name": "website",
              "type": "string"
            },
            {
              "internalType": "uint8",
              "name": "status",
              "type": "uint8"
            },
            {
              "internalType": "bool",
              "name": "isVerified",
              "type": "bool"
            }
          ],
          "internalType": "struct Identity.Institution",
          "name": "",
          "type": "tuple"
        }
      ],
      "stateMutability": "view",
      "type": "function"
    },
    {
      "inputs": [],
      "name": "getInstitutionStudents",
      "outputs": [
        {
          "components": [
            {
              "internalType": "address",
              "name": "userAddress",
              "type": "address"
            },
            {
              "internalType": "string",
              "name": "nationalId",
              "type": "string"
            },
            {
              "internalType": "string",
              "name": "firstName",
              "type": "string"
            },
            {
              "internalType": "string",
              "name": "lastName",
              "type": "string"
            },
            {
              "internalType": "string",
              "name": "phoneNumber",
              "type": "string"
            },
            {
              "internalType": "string",
              "name": "email",
              "type": "string"
            },
            {
              "internalType": "address",
              "name": "institutionAddress",
              "type": "address"
            },
            {
              "internalType": "string[]",
              "name": "enrolledCourses",
              "type": "string[]"
            },
            {
              "internalType": "uint8",
              "name": "status",
              "type": "uint8"
            },
            {
              "internalType": "bool",
              "name": "isVerified",
              "type": "bool"
            }
          ],
          "internalType": "struct Identity.Student[]",
          "name": "",
          "type": "tuple[]"
        }
      ],
      "stateMutability": "view",
      "type": "function"
    },
    {
      "inputs": [
        {
          "internalType": "address",
          "name": "_institutionAddress",
          "type": "address"
        }
      ],
      "name": "getInstitutionStudentsByAdmin",
      "outputs": [
        {
          "components": [
            {
              "internalType": "address",
              "name": "userAddress",
              "type": "address"
            },
            {
              "internalType": "string",
              "name": "nationalId",
              "type": "string"
            },
            {
              "internalType": "string",
              "name": "firstName",
              "type": "string"
            },
            {
              "internalType": "string",
              "name": "lastName",
              "type": "string"
            },
            {
              "internalType": "string",
              "name": "phoneNumber",
              "type": "string"
            },
            {
              "internalType": "string",
              "name": "email",
              "type": "string"
            },
            {
              "internalType": "address",
              "name": "institutionAddress",
              "type": "address"
            },
            {
              "internalType": "string[]",
              "name": "enrolledCourses",
              "type": "string[]"
            },
            {
              "internalType": "uint8",
              "name": "status",
              "type": "uint8"
            },
            {
              "internalType": "bool",
              "name": "isVerified",
              "type": "bool"
            }
          ],
          "internalType": "struct Identity.Student[]",
          "name": "",
          "type": "tuple[]"
        }
      ],
      "stateMutability": "view",
      "type": "function"
    },
    {
      "inputs": [
        {
          "internalType": "address",
          "name": "_studentAddress",
          "type": "address"
        }
      ],
      "name": "getStudentData",
      "outputs": [
        {
          "components": [
            {
              "internalType": "address",
              "name": "userAddress",
              "type": "address"
            },
            {
              "internalType": "string",
              "name": "nationalId",
              "type": "string"
            },
            {
              "internalType": "string",
              "name": "firstName",
              "type": "string"
            },
            {
              "internalType": "string",
              "name": "lastName",
              "type": "string"
            },
            {
              "internalType": "string",
              "name": "phoneNumber",
              "type": "string"
            },
            {
              "internalType": "string",
              "name": "email",
              "type": "string"
            },
            {
              "internalType": "address",
              "name": "institutionAddress",
              "type": "address"
            },
            {
              "internalType": "string[]",
              "name": "enrolledCourses",
              "type": "string[]"
            },
            {
              "internalType": "uint8",
              "name": "status",
              "type": "uint8"
            },
            {
              "internalType": "bool",
              "name": "isVerified",
              "type": "bool"
            }
          ],
          "internalType": "struct Identity.Student",
          "name": "",
          "type": "tuple"
        }
      ],
      "stateMutability": "view",
      "type": "function"
    },
    {
      "inputs": [
        {
          "internalType": "address",
          "name": "_userAddress",
          "type": "address"
        }
      ],
      "name": "getUserRole",
      "outputs": [
        {
          "internalType": "enum Identity.UserRole",
          "name": "",
          "type": "uint8"
        }
      ],
      "stateMutability": "view",
      "type": "function"
    },
    {
      "inputs": [
        {
          "internalType": "address",
          "name": "",
          "type": "address"
        },
        {
          "internalType": "address",
          "name": "",
          "type": "address"
        }
      ],
      "name": "institutionStudents",
      "outputs": [
        {
          "internalType": "bool",
          "name": "",
          "type": "bool"
        }
      ],
      "stateMutability": "view",
      "type": "function"
    },
    {
      "inputs": [
        {
          "internalType": "address",
          "name": "_address",
          "type": "address"
        }
      ],
      "name": "isAdmin",
      "outputs": [
        {
          "internalType": "bool",
          "name": "",
          "type": "bool"
        }
      ],
      "stateMutability": "view",
      "type": "function"
    },
    {
      "inputs": [
        {
          "internalType": "address",
          "name": "_address",
          "type": "address"
        }
      ],
      "name": "isInstitution",
      "outputs": [
        {
          "internalType": "bool",
          "name": "",
          "type": "bool"
        }
      ],
      "stateMutability": "view",
      "type": "function"
    },
    {
      "inputs": [
        {
          "internalType": "address",
          "name": "_institution",
          "type": "address"
        },
        {
          "internalType": "address",
          "name": "_student",
          "type": "address"
        }
      ],
      "name": "isStudentEnrolled",
      "outputs": [
        {
          "internalType": "bool",
          "name": "",
          "type": "bool"
        }
      ],
      "stateMutability": "view",
      "type": "function"
    },
    {
      "inputs": [
        {
          "internalType": "address",
          "name": "_userAddress",
          "type": "address"
        }
      ],
      "name": "isVerifiedUser",
      "outputs": [
        {
          "internalType": "bool",
          "name": "",
          "type": "bool"
        }
      ],
      "stateMutability": "view",
      "type": "function"
    },
    {
      "inputs": [],
      "name": "owner",
      "outputs": [
        {
          "internalType": "address",
          "name": "",
          "type": "address"
        }
      ],
      "stateMutability": "view",
      "type": "function"
    },
    {
      "inputs": [],
      "name": "pause",
      "outputs": [],
      "stateMutability": "nonpayable",
      "type": "function"
    },
    {
      "inputs": [],
      "name": "paused",
      "outputs": [
        {
          "internalType": "bool",
          "name": "",
          "type": "bool"
        }
      ],
      "stateMutability": "view",
      "type": "function"
    },
    {
      "inputs": [
        {
          "internalType": "string",
          "name": "_companyName",
          "type": "string"
        },
        {
          "internalType": "string",
          "name": "_location",
          "type": "string"
        },
        {
          "internalType": "string",
          "name": "_phoneNumber",
          "type": "string"
        },
        {
          "internalType": "string",
          "name": "_email",
          "type": "string"
        },
        {
          "internalType": "string",
          "name": "_website",
          "type": "string"
        }
      ],
      "name": "registerEmployer",
      "outputs": [],
      "stateMutability": "nonpayable",
      "type": "function"
    },
    {
      "inputs": [
        {
          "internalType": "string",
          "name": "_name",
          "type": "string"
        },
        {
          "internalType": "string",
          "name": "_location",
          "type": "string"
        },
        {
          "internalType": "string",
          "name": "_phoneNumber",
          "type": "string"
        },
        {
          "internalType": "string",
          "name": "_email",
          "type": "string"
        },
        {
          "internalType": "string",
          "name": "_website",
          "type": "string"
        }
      ],
      "name": "registerInstitution",
      "outputs": [],
      "stateMutability": "nonpayable",
      "type": "function"
    },
    {
      "inputs": [
        {
          "internalType": "address",
          "name": "_institutionAddress",
          "type": "address"
        },
        {
          "internalType": "string",
          "name": "_nationalId",
          "type": "string"
        },
        {
          "internalType": "string",
          "name": "_firstName",
          "type": "string"
        },
        {
          "internalType": "string",
          "name": "_lastName",
          "type": "string"
        },
        {
          "internalType": "string",
          "name": "_phoneNumber",
          "type": "string"
        },
        {
          "internalType": "string",
          "name": "_email",
          "type": "string"
        }
      ],
      "name": "registerStudent",
      "outputs": [],
      "stateMutability": "nonpayable",
      "type": "function"
    },
    {
      "inputs": [
        {
          "internalType": "address",
          "name": "_admin",
          "type": "address"
        }
      ],
      "name": "removeAdmin",
      "outputs": [],
      "stateMutability": "nonpayable",
      "type": "function"
    },
    {
      "inputs": [],
      "name": "renounceOwnership",
      "outputs": [],
      "stateMutability": "nonpayable",
      "type": "function"
    },
    {
      "inputs": [
        {
          "internalType": "address",
          "name": "newOwner",
          "type": "address"
        }
      ],
      "name": "transferOwnership",
      "outputs": [],
      "stateMutability": "nonpayable",
      "type": "function"
    },
    {
      "inputs": [],
      "name": "unpause",
      "outputs": [],
      "stateMutability": "nonpayable",
      "type": "function"
    },
    {
      "inputs": [
        {
          "internalType": "address",
          "name": "_userAddress",
          "type": "address"
        },
        {
          "internalType": "enum Identity.UserRole",
          "name": "_newRole",
          "type": "uint8"
        }
      ],
      "name": "updateUserRole",
      "outputs": [],
      "stateMutability": "nonpayable",
      "type": "function"
    },
    {
      "inputs": [
        {
          "internalType": "address",
          "name": "_userAddress",
          "type": "address"
        }
      ],
      "name": "userExists",
      "outputs": [
        {
          "internalType": "bool",
          "name": "",
          "type": "bool"
        }
      ],
      "stateMutability": "view",
      "type": "function"
    },
    {
      "inputs": [
        {
          "internalType": "address",
          "name": "",
          "type": "address"
        }
      ],
      "name": "users",
      "outputs": [
        {
          "internalType": "address",
          "name": "userAddress",
          "type": "address"
        },
        {
          "internalType": "enum Identity.UserRole",
          "name": "role",
          "type": "uint8"
        },
        {
          "internalType": "bool",
          "name": "isVerified",
          "type": "bool"
        }
      ],
      "stateMutability": "view",
      "type": "function"
    },
    {
      "inputs": [
        {
          "internalType": "address",
          "name": "_userAddress",
          "type": "address"
        }
      ],
      "name": "verifyUser",
      "outputs": [],
      "stateMutability": "nonpayable",
      "type": "function"
    }
  ],
  "bytecode": "0x60806040523480156200001157600080fd5b506200001d3362000066565b6000805460ff60a01b1916905560408051808201909152601281527161646d696e40706c6174666f726d2e636f6d60701b602082015262000060903390620000b6565b62000519565b600080546001600160a01b038381166001600160a01b0319831681178455604051919092169283917f8be0079c531659141344cd1fd0a4f28419497f9722a3daafe3b4186f6b6457e09190a35050565b6001600160a01b03821660009081526005602052604090205460ff1615620001185760405162461bcd60e51b815260206004820152601060248201526f20b63932b0b23c9030b71030b236b4b760811b60448201526064015b60405180910390fd5b6001600160a01b038216620001625760405162461bcd60e51b815260206004820152600f60248201526e496e76616c6964206164647265737360881b60448201526064016200010f565b60408051606081019091526001600160a01b03831681526020810160048152600160209182018190526001600160a01b03808616600090815291835260409091208351815492166001600160a01b0319831681178255928401519092909183916001600160a81b031990911617600160a01b836004811115620001e957620001e962000392565b0217905550604091820151815460ff60a81b1916600160a81b9115159190910217905580516080810182526001600160a01b03848116808352602080840186815260018587018190524260608701526000938452600a90925294909120835181546001600160a01b0319169316929092178255925191929091908201906200027290826200044d565b5060408281015160028301805491151560ff199283161790556060909301516003909201919091556001600160a01b0384166000818152600560205282812080549094166001908117909455600b8054948501815581527f0175b7a638427703f0dbe7bb9bbf987a2551717b34e79f33b5b1008d1fa01db990930180546001600160a01b03191682179055905190917f44d6d25963f097ad14f29f06854a01f575648a1ef82f30e562ccd3889717e33991a260046040516001600160a01b038416907f8e18574f8a7333e6a87112742a55853a643e2f0550f4e1a3a2c3f1bb2994441d90600090a36040516001600160a01b038316907fa6625d2d26e786e2f473111bea4b2fcdbbf1863d883a2359989ce3a103d2972a90600090a25050565b634e487b7160e01b600052602160045260246000fd5b634e487b7160e01b600052604160045260246000fd5b600181811c90821680620003d357607f821691505b602082108103620003f457634e487b7160e01b600052602260045260246000fd5b50919050565b601f8211156200044857600081815260208120601f850160051c81016020861015620004235750805b601f850160051c820191505b8181101562000444578281556001016200042f565b5050505b505050565b81516001600160401b03811115620004695762000469620003a8565b62000481816200047a8454620003be565b84620003fa565b602080601f831160018114620004b95760008415620004a05750858301515b600019600386901b1c1916600185901b17855562000444565b600085815260208120601f198616915b82811015620004ea57888601518255948401946001909101908401620004c9565b5085821015620005095787850151600019600388901b60f8161c191681555b5050505050600190811b01905550565b614de780620005296000396000f3fe608060405234801561001057600080fd5b50600436106101f05760003560e01c8063715018a61161010f578063cf43d870116100a2578063efbe3c5c11610071578063efbe3c5c1461052c578063f2f017701461054c578063f2fde38b1461055f578063f6f86a0e1461057257600080fd5b8063cf43d870146104c3578063d16856ca146104d6578063dd6aa93c146104e9578063e9523c971461051757600080fd5b806390cf9830116100de57806390cf98301461042f57806392ede6d01461044f578063a87430ba14610462578063c291fe62146104b057600080fd5b8063715018a6146103e45780638456cb59146103ec57806388a77e93146103f45780638da5cb5b1461041457600080fd5b80633f4ba83a116101875780634d813120116101565780634d81312014610370578063503cf346146103835780635c975abb146103bf5780636b365e7c146103d157600080fd5b80633f4ba83a146103105780633f898323146103185780634104180e14610338578063429b62e51461034d57600080fd5b8063198d9b7c116101c3578063198d9b7c1461027557806324d7806c1461028a578063278208511461029d5780633da1c0c3146102dd57600080fd5b80630331df07146101f55780630e666e491461021d57806314c671d61461024b5780631785f53c14610260575b600080fd5b61020861020336600461420a565b610585565b60405190151581526020015b60405180910390f35b61020861022b36600461420a565b6001600160a01b0390811660009081526001602052604090205416151590565b6102536105ef565b6040516102149190614319565b61027361026e36600461420a565b610a20565b005b61027d610b82565b60405161021491906144c6565b61020861029836600461420a565b6111be565b6102d06102ab36600461420a565b6001600160a01b0316600090815260016020526040902054600160a01b900460ff1690565b6040516102149190614553565b6102086102eb36600461420a565b6001600160a01b0316600090815260016020526040902054600160a81b900460ff1690565b6102736111f5565b61032b61032636600461420a565b611243565b6040516102149190614561565b6103406116db565b6040516102149190614638565b61020861035b36600461420a565b60056020526000908152604090205460ff1681565b61027361037e36600461420a565b611b0c565b61020861039136600461468d565b6001600160a01b03918216600090815260066020908152604080832093909416825291909152205460ff1690565b600054600160a01b900460ff16610208565b6102736103df366004614777565b611d2a565b610273611f5b565b610273611f6d565b61040761040236600461420a565b611fb9565b6040516102149190614849565b6000546040516001600160a01b039091168152602001610214565b61044261043d36600461420a565b612347565b604051610214919061485c565b61027361045d36600461486f565b6126e8565b6104a161047036600461420a565b6001602052600090815260409020546001600160a01b0381169060ff600160a01b8204811691600160a81b90041683565b60405161021493929190614950565b6102736104be36600461497d565b6129b2565b6102736104d1366004614777565b612d26565b6102736104e43660046149b8565b612f42565b6102086104f736600461468d565b600660209081526000928352604080842090915290825290205460ff1681565b61051f612f58565b6040516102149190614a4f565b61053f61053a36600461420a565b613169565b6040516102149190614aa4565b61027361055a366004614ab7565b6132d4565b61027361056d36600461420a565b6134d0565b61027d61058036600461420a565b613549565b600060026001600160a01b038316600090815260016020526040902054600160a01b900460ff1660048111156105bd576105bd61451b565b1480156105e957506001600160a01b038216600090815260016020526040902054600160a81b900460ff165b92915050565b3360009081526005602052604090205460609060ff168061061a57506000546001600160a01b031633145b61063f5760405162461bcd60e51b815260040161063690614b64565b60405180910390fd5b60095460009067ffffffffffffffff81111561065d5761065d6146c0565b60405190808252806020026020018201604052801561069657816020015b61068361402c565b81526020019060019003908161067b5790505b50905060005b600954811015610a1a5760046000600983815481106106bd576106bd614b8a565b60009182526020808320909101546001600160a01b039081168452838201949094526040928301909120825160e08101909352805490931682526001830180549293929184019161070d90614ba0565b80601f016020809104026020016040519081016040528092919081815260200182805461073990614ba0565b80156107865780601f1061075b57610100808354040283529160200191610786565b820191906000526020600020905b81548152906001019060200180831161076957829003601f168201915b5050505050815260200160028201805461079f90614ba0565b80601f01602080910402602001604051908101604052809291908181526020018280546107cb90614ba0565b80156108185780601f106107ed57610100808354040283529160200191610818565b820191906000526020600020905b8154815290600101906020018083116107fb57829003601f168201915b5050505050815260200160038201805461083190614ba0565b80601f016020809104026020016040519081016040528092919081815260200182805461085d90614ba0565b80156108aa5780601f1061087f576101008083540402835291602001916108aa565b820191906000526020600020905b81548152906001019060200180831161088d57829003601f168201915b505050505081526020016004820180546108c390614ba0565b80601f01602080910402602001604051908101604052809291908181526020018280546108ef90614ba0565b801561093c5780601f106109115761010080835404028352916020019161093c565b820191906000526020600020905b81548152906001019060200180831161091f57829003601f168201915b5050505050815260200160058201805461095590614ba0565b80601f016020809104026020016040519081016040528092919081815260200182805461098190614ba0565b80156109ce5780601f106109a3576101008083540402835291602001916109ce565b820191906000526020600020905b8154815290600101906020018083116109b157829003601f168201915b50505091835250506006919091015460ff16151560209091015282518390839081106109fc576109fc614b8a565b60200260200101819052508080610a1290614bda565b91505061069c565b50905090565b610a28613b7e565b6000546001600160a01b03166001600160a01b0316816001600160a01b031603610a8a5760405162461bcd60e51b815260206004820152601360248201527221b0b73737ba103932b6b7bb329037bbb732b960691b6044820152606401610636565b6001600160a01b03811660009081526005602052604090205460ff16610ac25760405162461bcd60e51b815260040161063690614b64565b336001600160a01b03821603610b0f5760405162461bcd60e51b815260206004820152601260248201527121b0b73737ba103932b6b7bb329039b2b63360711b6044820152606401610636565b6001600160a01b0381166000818152600560209081526040808320805460ff19908116909155600a8352818420600201805490911690556001909152808220805461ffff60a01b19169055517fa3b62bc36326052d97ea62d63c3d60308ed4c3ea8ac079dd8499f1e9c4f80c0f9190a250565b6060600233600090815260016020526040902054600160a01b900460ff166004811115610bb157610bb161451b565b14610bce5760405162461bcd60e51b815260040161063690614c01565b33600090815260016020526040902054600160a81b900460ff16610c2a5760405162461bcd60e51b81526020600482015260136024820152722737ba1030903b32b934b334b2b2103ab9b2b960691b6044820152606401610636565b6000805b600754811015610ca857600060078281548110610c4d57610c4d614b8a565b60009182526020808320909101543383526006825260408084206001600160a01b039092168085529190925291205490915060ff1615610c955782610c9181614bda565b9350505b5080610ca081614bda565b915050610c2e565b5060008167ffffffffffffffff811115610cc457610cc46146c0565b604051908082528060200260200182016040528015610cfd57816020015b610cea614074565b815260200190600190039081610ce25790505b5090506000805b6007548110156111b557600060078281548110610d2357610d23614b8a565b60009182526020808320909101543383526006825260408084206001600160a01b039092168085529190925291205490915060ff16156111a2576001600160a01b03808216600090815260026020908152604091829020825161014081019093528054909316825260018301805492939291840191610da190614ba0565b80601f0160208091040260200160405190810160405280929190818152602001828054610dcd90614ba0565b8015610e1a5780601f10610def57610100808354040283529160200191610e1a565b820191906000526020600020905b815481529060010190602001808311610dfd57829003601f168201915b50505050508152602001600282018054610e3390614ba0565b80601f0160208091040260200160405190810160405280929190818152602001828054610e5f90614ba0565b8015610eac5780601f10610e8157610100808354040283529160200191610eac565b820191906000526020600020905b815481529060010190602001808311610e8f57829003601f168201915b50505050508152602001600382018054610ec590614ba0565b80601f0160208091040260200160405190810160405280929190818152602001828054610ef190614ba0565b8015610f3e5780601f10610f1357610100808354040283529160200191610f3e565b820191906000526020600020905b815481529060010190602001808311610f2157829003601f168201915b50505050508152602001600482018054610f5790614ba0565b80601f0160208091040260200160405190810160405280929190818152602001828054610f8390614ba0565b8015610fd05780601f10610fa557610100808354040283529160200191610fd0565b820191906000526020600020905b815481529060010190602001808311610fb357829003601f168201915b50505050508152602001600582018054610fe990614ba0565b80601f016020809104026020016040519081016040528092919081815260200182805461101590614ba0565b80156110625780601f1061103757610100808354040283529160200191611062565b820191906000526020600020905b81548152906001019060200180831161104557829003601f168201915b505050918352505060068201546001600160a01b0316602080830191909152600783018054604080518285028101850182528281529401939260009084015b8282101561114d5783829060005260206000200180546110c090614ba0565b80601f01602080910402602001604051908101604052809291908181526020018280546110ec90614ba0565b80156111395780601f1061110e57610100808354040283529160200191611139565b820191906000526020600020905b81548152906001019060200180831161111c57829003601f168201915b5050505050815260200190600101906110a1565b505050908252506008919091015460ff8082166020840152610100909104161515604090910152845185908590811061118857611188614b8a565b6020026020010181905250828061119e90614bda565b9350505b50806111ad81614bda565b915050610d04565b50909250505090565b6001600160a01b03811660009081526005602052604081205460ff16806105e95750506000546001600160a01b0391821691161490565b3360009081526005602052604090205460ff168061121d57506000546001600160a01b031633145b6112395760405162461bcd60e51b815260040161063690614b64565b611241613bd8565b565b61124b614074565b60016001600160a01b038316600090815260016020526040902054600160a01b900460ff1660048111156112815761128161451b565b146112be5760405162461bcd60e51b815260206004820152600d60248201526c139bdd0818481cdd1d59195b9d609a1b6044820152606401610636565b6001600160a01b0380831660009081526002602090815260409182902082516101408101909352805490931682526001830180549293929184019161130290614ba0565b80601f016020809104026020016040519081016040528092919081815260200182805461132e90614ba0565b801561137b5780601f106113505761010080835404028352916020019161137b565b820191906000526020600020905b81548152906001019060200180831161135e57829003601f168201915b5050505050815260200160028201805461139490614ba0565b80601f01602080910402602001604051908101604052809291908181526020018280546113c090614ba0565b801561140d5780601f106113e25761010080835404028352916020019161140d565b820191906000526020600020905b8154815290600101906020018083116113f057829003601f168201915b5050505050815260200160038201805461142690614ba0565b80601f016020809104026020016040519081016040528092919081815260200182805461145290614ba0565b801561149f5780601f106114745761010080835404028352916020019161149f565b820191906000526020600020905b81548152906001019060200180831161148257829003601f168201915b505050505081526020016004820180546114b890614ba0565b80601f01602080910402602001604051908101604052809291908181526020018280546114e490614ba0565b80156115315780601f1061150657610100808354040283529160200191611531565b820191906000526020600020905b81548152906001019060200180831161151457829003601f168201915b5050505050815260200160058201805461154a90614ba0565b80601f016020809104026020016040519081016040528092919081815260200182805461157690614ba0565b80156115c35780601f10611598576101008083540402835291602001916115c3565b820191906000526020600020905b8154815290600101906020018083116115a657829003601f168201915b505050918352505060068201546001600160a01b0316602080830191909152600783018054604080518285028101850182528281529401939260009084015b828210156116ae57838290600052602060002001805461162190614ba0565b80601f016020809104026020016040519081016040528092919081815260200182805461164d90614ba0565b801561169a5780601f1061166f5761010080835404028352916020019161169a565b820191906000526020600020905b81548152906001019060200180831161167d57829003601f168201915b505050505081526020019060010190611602565b505050908252506008919091015460ff808216602084015261010090910416151560409091015292915050565b3360009081526005602052604090205460609060ff168061170657506000546001600160a01b031633145b6117225760405162461bcd60e51b815260040161063690614b64565b60085460009067ffffffffffffffff811115611740576117406146c0565b60405190808252806020026020018201604052801561177957816020015b6117666140de565b81526020019060019003908161175e5790505b50905060005b600854811015610a1a5760036000600883815481106117a0576117a0614b8a565b60009182526020808320909101546001600160a01b0390811684528382019490945260409283019091208251610100810190935280549093168252600183018054929392918401916117f190614ba0565b80601f016020809104026020016040519081016040528092919081815260200182805461181d90614ba0565b801561186a5780601f1061183f5761010080835404028352916020019161186a565b820191906000526020600020905b81548152906001019060200180831161184d57829003601f168201915b5050505050815260200160028201805461188390614ba0565b80601f01602080910402602001604051908101604052809291908181526020018280546118af90614ba0565b80156118fc5780601f106118d1576101008083540402835291602001916118fc565b820191906000526020600020905b8154815290600101906020018083116118df57829003601f168201915b5050505050815260200160038201805461191590614ba0565b80601f016020809104026020016040519081016040528092919081815260200182805461194190614ba0565b801561198e5780601f106119635761010080835404028352916020019161198e565b820191906000526020600020905b81548152906001019060200180831161197157829003601f168201915b505050505081526020016004820180546119a790614ba0565b80601f01602080910402602001604051908101604052809291908181526020018280546119d390614ba0565b8015611a205780601f106119f557610100808354040283529160200191611a20565b820191906000526020600020905b815481529060010190602001808311611a0357829003601f168201915b50505050508152602001600582018054611a3990614ba0565b80601f0160208091040260200160405190810160405280929190818152602001828054611a6590614ba0565b8015611ab25780601f10611a8757610100808354040283529160200191611ab2565b820191906000526020600020905b815481529060010190602001808311611a9557829003601f168201915b50505091835250506006919091015460ff80821660208401526101009091041615156040909101528251839083908110611aee57611aee614b8a565b60200260200101819052508080611b0490614bda565b91505061177f565b3360009081526005602052604090205460ff1680611b3457506000546001600160a01b031633145b611b505760405162461bcd60e51b815260040161063690614b64565b6001600160a01b0381811660009081526001602052604090205416611b875760405162461bcd60e51b815260040161063690614c2d565b6001600160a01b038116600090815260016020526040902054600160a81b900460ff1615611bef5760405162461bcd60e51b8152602060048201526015602482015274155cd95c88185b1c9958591e481d995c9a599a5959605a1b6044820152606401610636565b6001600160a01b0381166000908152600160208190526040909120805460ff60a81b1916600160a81b1790819055600160a01b900460ff1690816004811115611c3a57611c3a61451b565b03611c6c576001600160a01b0382166000908152600260205260409020600801805461ff001916610100179055611cf2565b6002816004811115611c8057611c8061451b565b03611cb2576001600160a01b0382166000908152600360205260409020600601805461ff001916610100179055611cf2565b6003816004811115611cc657611cc661451b565b03611cf2576001600160a01b0382166000908152600460205260409020600601805460ff191660011790555b6040516001600160a01b038316907fa6625d2d26e786e2f473111bea4b2fcdbbf1863d883a2359989ce3a103d2972a90600090a25050565b611d32613c2d565b336000908152600160205260409020546001600160a01b031615611d685760405162461bcd60e51b815260040161063690614c5a565b60408051606081019091523381526020810160038152600060209182018190523381526001825260409020825181546001600160a01b03919091166001600160a01b031982168117835592840151919283916001600160a81b03191617600160a01b836004811115611ddc57611ddc61451b565b0217905550604091820151815460ff60a81b1916600160a81b91151591909102179055805160e081018252338082526020808301898152838501899052606084018890526080840187905260a08401869052600060c085018190529283526004909152929020815181546001600160a01b0319166001600160a01b0390911617815591519091906001820190611e729082614cd6565b5060408201516002820190611e879082614cd6565b5060608201516003820190611e9c9082614cd6565b5060808201516004820190611eb19082614cd6565b5060a08201516005820190611ec69082614cd6565b5060c091909101516006909101805491151560ff19909216919091179055600980546001810182556000919091527f6e1540171b6c0c960b71a7020d9f60077f6af931a8bbf590da0223dacf75c7af0180546001600160a01b0319163317905560035b60405133907f8e18574f8a7333e6a87112742a55853a643e2f0550f4e1a3a2c3f1bb2994441d90600090a35050505050565b611f63613b7e565b6112416000613c7a565b3360009081526005602052604090205460ff1680611f9557506000546001600160a01b031633145b611fb15760405162461bcd60e51b815260040161063690614b64565b611241613cca565b611fc16140de565b60026001600160a01b038316600090815260016020526040902054600160a01b900460ff166004811115611ff757611ff761451b565b146120145760405162461bcd60e51b815260040161063690614c01565b6001600160a01b0380831660009081526003602090815260409182902082516101008101909352805490931682526001830180549293929184019161205890614ba0565b80601f016020809104026020016040519081016040528092919081815260200182805461208490614ba0565b80156120d15780601f106120a6576101008083540402835291602001916120d1565b820191906000526020600020905b8154815290600101906020018083116120b457829003601f168201915b505050505081526020016002820180546120ea90614ba0565b80601f016020809104026020016040519081016040528092919081815260200182805461211690614ba0565b80156121635780601f1061213857610100808354040283529160200191612163565b820191906000526020600020905b81548152906001019060200180831161214657829003601f168201915b5050505050815260200160038201805461217c90614ba0565b80601f01602080910402602001604051908101604052809291908181526020018280546121a890614ba0565b80156121f55780601f106121ca576101008083540402835291602001916121f5565b820191906000526020600020905b8154815290600101906020018083116121d857829003601f168201915b5050505050815260200160048201805461220e90614ba0565b80601f016020809104026020016040519081016040528092919081815260200182805461223a90614ba0565b80156122875780601f1061225c57610100808354040283529160200191612287565b820191906000526020600020905b81548152906001019060200180831161226a57829003601f168201915b505050505081526020016005820180546122a090614ba0565b80601f01602080910402602001604051908101604052809291908181526020018280546122cc90614ba0565b80156123195780601f106122ee57610100808354040283529160200191612319565b820191906000526020600020905b8154815290600101906020018083116122fc57829003601f168201915b50505091835250506006919091015460ff808216602084015261010090910416151560409091015292915050565b61234f61402c565b60036001600160a01b038316600090815260016020526040902054600160a01b900460ff1660048111156123855761238561451b565b146123c45760405162461bcd60e51b815260206004820152600f60248201526e2737ba1030b71032b6b83637bcb2b960891b6044820152606401610636565b6001600160a01b03808316600090815260046020908152604091829020825160e08101909352805490931682526001830180549293929184019161240790614ba0565b80601f016020809104026020016040519081016040528092919081815260200182805461243390614ba0565b80156124805780601f1061245557610100808354040283529160200191612480565b820191906000526020600020905b81548152906001019060200180831161246357829003601f168201915b5050505050815260200160028201805461249990614ba0565b80601f01602080910402602001604051908101604052809291908181526020018280546124c590614ba0565b80156125125780601f106124e757610100808354040283529160200191612512565b820191906000526020600020905b8154815290600101906020018083116124f557829003601f168201915b5050505050815260200160038201805461252b90614ba0565b80601f016020809104026020016040519081016040528092919081815260200182805461255790614ba0565b80156125a45780601f10612579576101008083540402835291602001916125a4565b820191906000526020600020905b81548152906001019060200180831161258757829003601f168201915b505050505081526020016004820180546125bd90614ba0565b80601f01602080910402602001604051908101604052809291908181526020018280546125e990614ba0565b80156126365780601f1061260b57610100808354040283529160200191612636565b820191906000526020600020905b81548152906001019060200180831161261957829003601f168201915b5050505050815260200160058201805461264f90614ba0565b80601f016020809104026020016040519081016040528092919081815260200182805461267b90614ba0565b80156126c85780601f1061269d576101008083540402835291602001916126c8565b820191906000526020600020905b8154815290600101906020018083116126ab57829003601f168201915b50505091835250506006919091015460ff16151560209091015292915050565b6126f0613c2d565b336000908152600160205260409020546001600160a01b0316156127265760405162461bcd60e51b815260040161063690614c5a565b60408051606081019091523381526020810160018152600060209182018190523381526001825260409020825181546001600160a01b03919091166001600160a01b031982168117835592840151919283916001600160a81b03191617600160a01b83600481111561279a5761279a61451b565b02179055506040918201518154901515600160a81b0260ff60a81b199091161790558051610140810182523381526020808201889052818301879052606082018690526080820185905260a082018490526001600160a01b03891660c083015282516000808252918101909352909160e0830191612828565b60608152602001906001900390816128135790505b50815260006020808301829052604092830182905233825260028152919020825181546001600160a01b0319166001600160a01b039091161781559082015160018201906128769082614cd6565b506040820151600282019061288b9082614cd6565b50606082015160038201906128a09082614cd6565b50608082015160048201906128b59082614cd6565b5060a082015160058201906128ca9082614cd6565b5060c08201516006820180546001600160a01b0319166001600160a01b0390921691909117905560e0820151805161290c916007840191602090910190614131565b506101008281015160089290920180546101209094015160ff90931661ffff19909416939093179115150217905560078054600181810183556000929092527fa66cc928b5edb82af9bd49922954155ab7b0942694bea4ce44661d9a8736c688018054336001600160a01b031990911617905560405133907f8e18574f8a7333e6a87112742a55853a643e2f0550f4e1a3a2c3f1bb2994441d90600090a3505050505050565b3360009081526005602052604090205460ff16806129da57506000546001600160a01b031633145b6129f65760405162461bcd60e51b815260040161063690614b64565b6001600160a01b0382811660009081526001602052604090205416612a2d5760405162461bcd60e51b815260040161063690614c2d565b6000816004811115612a4157612a4161451b565b14158015612a6157506004816004811115612a5e57612a5e61451b565b14155b612a9c5760405162461bcd60e51b815260206004820152600c60248201526b496e76616c696420726f6c6560a01b6044820152606401610636565b6001600160a01b03821660009081526001602052604090208054600160a01b80820460ff16928492909160ff60a01b1990911690836004811115612ae257612ae261451b565b02179055506002826004811115612afb57612afb61451b565b03612c4b5760408051610100810182526001600160a01b03858116808352835160208082018652600080835281860192835286518083018852818152868801528651808301885281815260608701528651808301885281815260808701528651808301885281815260a087015260c0860181905283815260018083528782205460ff600160a81b90910416151560e0880152938152600390915294909420835181546001600160a01b031916931692909217825592519192909190820190612bc39082614cd6565b5060408201516002820190612bd89082614cd6565b5060608201516003820190612bed9082614cd6565b5060808201516004820190612c029082614cd6565b5060a08201516005820190612c179082614cd6565b5060c08201516006909101805460e09093015115156101000261ffff1990931660ff90921691909117919091179055612cde565b6002816004811115612c5f57612c5f61451b565b03612cde576001600160a01b038316600090815260036020526040812080546001600160a01b031916815590612c986001830182614187565b612ca6600283016000614187565b612cb4600383016000614187565b612cc2600483016000614187565b612cd0600583016000614187565b50600601805461ffff191690555b826001600160a01b03167f4fa2901831bcf00bf6aa89b5bbe7a61f2e7f65874dc55ed1fe95ba7bc22f3e338284604051612d19929190614d96565b60405180910390a2505050565b612d2e613c2d565b336000908152600160205260409020546001600160a01b031615612d645760405162461bcd60e51b815260040161063690614c5a565b60408051606081019091523381526020810160028152600060209182018190523381526001825260409020825181546001600160a01b03919091166001600160a01b031982168117835592840151919283916001600160a81b03191617600160a01b836004811115612dd857612dd861451b565b0217905550604091820151815460ff60a81b1916600160a81b91151591909102179055805161010081018252338082526020808301898152838501899052606084018890526080840187905260a08401869052600060c0850181905260e085018190529283526003909152929020815181546001600160a01b0319166001600160a01b0390911617815591519091906001820190612e769082614cd6565b5060408201516002820190612e8b9082614cd6565b5060608201516003820190612ea09082614cd6565b5060808201516004820190612eb59082614cd6565b5060a08201516005820190612eca9082614cd6565b5060c08201516006909101805460e09093015115156101000261ffff1990931660ff90921691909117919091179055600880546001810182556000919091527ff3f7a9fe364faab93b216da50a3214154f22a0a2b415b23a84c8169e8b636ee30180546001600160a01b031916331790556002611f29565b612f4a613b7e565b612f548282613d0d565b5050565b3360009081526005602052604090205460609060ff1680612f8357506000546001600160a01b031633145b612f9f5760405162461bcd60e51b815260040161063690614b64565b600b5460009067ffffffffffffffff811115612fbd57612fbd6146c0565b60405190808252806020026020018201604052801561302457816020015b613011604051806080016040528060006001600160a01b0316815260200160608152602001600015158152602001600081525090565b815260200190600190039081612fdb5790505b50905060005b600b54811015610a1a57600a6000600b838154811061304b5761304b614b8a565b60009182526020808320909101546001600160a01b039081168452838201949094526040928301909120825160808101909352805490931682526001830180549293929184019161309b90614ba0565b80601f01602080910402602001604051908101604052809291908181526020018280546130c790614ba0565b80156131145780601f106130e957610100808354040283529160200191613114565b820191906000526020600020905b8154815290600101906020018083116130f757829003601f168201915b5050509183525050600282015460ff1615156020820152600390910154604090910152825183908390811061314b5761314b614b8a565b6020026020010181905250808061316190614bda565b91505061302a565b61319f604051806080016040528060006001600160a01b0316815260200160608152602001600015158152602001600081525090565b6001600160a01b03821660009081526005602052604090205460ff16806131d357506000546001600160a01b038381169116145b6131ef5760405162461bcd60e51b815260040161063690614b64565b6001600160a01b038083166000908152600a6020908152604091829020825160808101909352805490931682526001830180549293929184019161323290614ba0565b80601f016020809104026020016040519081016040528092919081815260200182805461325e90614ba0565b80156132ab5780601f10613280576101008083540402835291602001916132ab565b820191906000526020600020905b81548152906001019060200180831161328e57829003601f168201915b5050509183525050600282015460ff161515602082015260039091015460409091015292915050565b33600090815260016020526040902054600160a81b900460ff166133305760405162461bcd60e51b81526020600482015260136024820152722737ba1030903b32b934b334b2b2103ab9b2b960691b6044820152606401610636565b600233600090815260016020526040902054600160a01b900460ff16600481111561335d5761335d61451b565b1461337a5760405162461bcd60e51b815260040161063690614c01565b60005b8151811015612f5457600082828151811061339a5761339a614b8a565b6020908102919091018101516001600160a01b0380821660009081526001909352604090922054909250166133e15760405162461bcd60e51b815260040161063690614c2d565b60016001600160a01b038216600090815260016020526040902054600160a01b900460ff1660048111156134175761341761451b565b1461345c5760405162461bcd60e51b8152602060048201526015602482015274155cd95c881a5cc81b9bdd0818481cdd1d59195b9d605a1b6044820152606401610636565b3360009081526006602090815260408083206001600160a01b038516845290915290205460ff161561348e57506134be565b3360009081526006602090815260408083206001600160a01b0394909416835292905220805460ff191660011790555b806134c881614bda565b91505061337d565b6134d8613b7e565b6001600160a01b03811661353d5760405162461bcd60e51b815260206004820152602660248201527f4f776e61626c653a206e6577206f776e657220697320746865207a65726f206160448201526564647265737360d01b6064820152608401610636565b61354681613c7a565b50565b3360009081526005602052604090205460609060ff168061357457506000546001600160a01b031633145b6135905760405162461bcd60e51b815260040161063690614b64565b60026001600160a01b038316600090815260016020526040902054600160a01b900460ff1660048111156135c6576135c661451b565b146135e35760405162461bcd60e51b815260040161063690614c01565b6000805b6007548110156136635760006007828154811061360657613606614b8a565b60009182526020808320909101546001600160a01b0388811684526006835260408085209190921680855292529091205490915060ff1615613650578261364c81614bda565b9350505b508061365b81614bda565b9150506135e7565b5060008167ffffffffffffffff81111561367f5761367f6146c0565b6040519080825280602002602001820160405280156136b857816020015b6136a5614074565b81526020019060019003908161369d5790505b5090506000805b600754811015613b72576000600782815481106136de576136de614b8a565b60009182526020808320909101546001600160a01b038a811684526006835260408085209190921680855292529091205490915060ff1615613b5f576001600160a01b0380821660009081526002602090815260409182902082516101408101909352805490931682526001830180549293929184019161375e90614ba0565b80601f016020809104026020016040519081016040528092919081815260200182805461378a90614ba0565b80156137d75780601f106137ac576101008083540402835291602001916137d7565b820191906000526020600020905b8154815290600101906020018083116137ba57829003601f168201915b505050505081526020016002820180546137f090614ba0565b80601f016020809104026020016040519081016040528092919081815260200182805461381c90614ba0565b80156138695780601f1061383e57610100808354040283529160200191613869565b820191906000526020600020905b81548152906001019060200180831161384c57829003601f168201915b5050505050815260200160038201805461388290614ba0565b80601f01602080910402602001604051908101604052809291908181526020018280546138ae90614ba0565b80156138fb5780601f106138d0576101008083540402835291602001916138fb565b820191906000526020600020905b8154815290600101906020018083116138de57829003601f168201915b5050505050815260200160048201805461391490614ba0565b80601f016020809104026020016040519081016040528092919081815260200182805461394090614ba0565b801561398d5780601f106139625761010080835404028352916020019161398d565b820191906000526020600020905b81548152906001019060200180831161397057829003601f168201915b505050505081526020016005820180546139a690614ba0565b80601f01602080910402602001604051908101604052809291908181526020018280546139d290614ba0565b8015613a1f5780601f106139f457610100808354040283529160200191613a1f565b820191906000526020600020905b815481529060010190602001808311613a0257829003601f168201915b505050918352505060068201546001600160a01b0316602080830191909152600783018054604080518285028101850182528281529401939260009084015b82821015613b0a578382906000526020600020018054613a7d90614ba0565b80601f0160208091040260200160405190810160405280929190818152602001828054613aa990614ba0565b8015613af65780601f10613acb57610100808354040283529160200191613af6565b820191906000526020600020905b815481529060010190602001808311613ad957829003601f168201915b505050505081526020019060010190613a5e565b505050908252506008919091015460ff80821660208401526101009091041615156040909101528451859085908110613b4557613b45614b8a565b60200260200101819052508280613b5b90614bda565b9350505b5080613b6a81614bda565b9150506136bf565b5090925050505b919050565b6000546001600160a01b031633146112415760405162461bcd60e51b815260206004820181905260248201527f4f776e61626c653a2063616c6c6572206973206e6f7420746865206f776e65726044820152606401610636565b613be0613fdc565b6000805460ff60a01b191690557f5db9ee0a495bf2e6ff9c91a7834c1ba4fdd244a5e8aa4e537bd38aeae4b073aa335b6040516001600160a01b03909116815260200160405180910390a1565b600054600160a01b900460ff16156112415760405162461bcd60e51b815260206004820152601060248201526f14185d5cd8589b194e881c185d5cd95960821b6044820152606401610636565b600080546001600160a01b038381166001600160a01b0319831681178455604051919092169283917f8be0079c531659141344cd1fd0a4f28419497f9722a3daafe3b4186f6b6457e09190a35050565b613cd2613c2d565b6000805460ff60a01b1916600160a01b1790557f62e78cea01bee320cd4e420270b5ea74000d11b0c9f74754ebdbfc544b05a258613c103390565b6001600160a01b03821660009081526005602052604090205460ff1615613d695760405162461bcd60e51b815260206004820152601060248201526f20b63932b0b23c9030b71030b236b4b760811b6044820152606401610636565b6001600160a01b038216613db15760405162461bcd60e51b815260206004820152600f60248201526e496e76616c6964206164647265737360881b6044820152606401610636565b60408051606081019091526001600160a01b03831681526020810160048152600160209182018190526001600160a01b03808616600090815291835260409091208351815492166001600160a01b0319831681178255928401519092909183916001600160a81b031990911617600160a01b836004811115613e3557613e3561451b565b0217905550604091820151815460ff60a81b1916600160a81b9115159190910217905580516080810182526001600160a01b03848116808352602080840186815260018587018190524260608701526000938452600a90925294909120835181546001600160a01b031916931692909217825592519192909190820190613ebc9082614cd6565b5060408281015160028301805491151560ff199283161790556060909301516003909201919091556001600160a01b0384166000818152600560205282812080549094166001908117909455600b8054948501815581527f0175b7a638427703f0dbe7bb9bbf987a2551717b34e79f33b5b1008d1fa01db990930180546001600160a01b03191682179055905190917f44d6d25963f097ad14f29f06854a01f575648a1ef82f30e562ccd3889717e33991a260046040516001600160a01b038416907f8e18574f8a7333e6a87112742a55853a643e2f0550f4e1a3a2c3f1bb2994441d90600090a36040516001600160a01b038316907fa6625d2d26e786e2f473111bea4b2fcdbbf1863d883a2359989ce3a103d2972a90600090a25050565b600054600160a01b900460ff166112415760405162461bcd60e51b815260206004820152601460248201527314185d5cd8589b194e881b9bdd081c185d5cd95960621b6044820152606401610636565b6040518060e0016040528060006001600160a01b0316815260200160608152602001606081526020016060815260200160608152602001606081526020016000151581525090565b60405180610140016040528060006001600160a01b03168152602001606081526020016060815260200160608152602001606081526020016060815260200160006001600160a01b0316815260200160608152602001600060ff1681526020016000151581525090565b60405180610100016040528060006001600160a01b031681526020016060815260200160608152602001606081526020016060815260200160608152602001600060ff1681526020016000151581525090565b828054828255906000526020600020908101928215614177579160200282015b8281111561417757825182906141679082614cd6565b5091602001919060010190614151565b506141839291506141c1565b5090565b50805461419390614ba0565b6000825580601f106141a3575050565b601f01602090049060005260206000209081019061354691906141de565b808211156141835760006141d58282614187565b506001016141c1565b5b8082111561418357600081556001016141df565b80356001600160a01b0381168114613b7957600080fd5b60006020828403121561421c57600080fd5b614225826141f3565b9392505050565b6000815180845260005b8181101561425257602081850181015186830182015201614236565b506000602082860101526020601f19601f83011685010191505092915050565b60018060a01b0381511682526000602082015160e0602085015261429960e085018261422c565b9050604083015184820360408601526142b2828261422c565b915050606083015184820360608601526142cc828261422c565b915050608083015184820360808601526142e6828261422c565b91505060a083015184820360a0860152614300828261422c565b91505060c0830151151560c08501528091505092915050565b6000602080830181845280855180835260408601915060408160051b870101925083870160005b8281101561436e57603f1988860301845261435c858351614272565b94509285019290850190600101614340565b5092979650505050505050565b600081518084526020808501808196508360051b8101915082860160005b858110156143c35782840389526143b184835161422c565b98850198935090840190600101614399565b5091979650505050505050565b80516001600160a01b03168252600061014060208301518160208601526143f98286018261422c565b91505060408301518482036040860152614413828261422c565b9150506060830151848203606086015261442d828261422c565b91505060808301518482036080860152614447828261422c565b91505060a083015184820360a0860152614461828261422c565b91505060c083015161447e60c08601826001600160a01b03169052565b5060e083015184820360e0860152614496828261437b565b915050610100808401516144ae8287018260ff169052565b50506101209283015115159390920192909252919050565b6000602080830181845280855180835260408601915060408160051b870101925083870160005b8281101561436e57603f198886030184526145098583516143d0565b945092850192908501906001016144ed565b634e487b7160e01b600052602160045260246000fd5b6005811061454f57634e487b7160e01b600052602160045260246000fd5b9052565b602081016105e98284614531565b60208152600061422560208301846143d0565b80516001600160a01b031682526000610100602083015181602086015261459d8286018261422c565b915050604083015184820360408601526145b7828261422c565b915050606083015184820360608601526145d1828261422c565b915050608083015184820360808601526145eb828261422c565b91505060a083015184820360a0860152614605828261422c565b91505060c083015161461c60c086018260ff169052565b5060e083015161463060e086018215159052565b509392505050565b6000602080830181845280855180835260408601915060408160051b870101925083870160005b8281101561436e57603f1988860301845261467b858351614574565b9450928501929085019060010161465f565b600080604083850312156146a057600080fd5b6146a9836141f3565b91506146b7602084016141f3565b90509250929050565b634e487b7160e01b600052604160045260246000fd5b604051601f8201601f1916810167ffffffffffffffff811182821017156146ff576146ff6146c0565b604052919050565b600082601f83011261471857600080fd5b813567ffffffffffffffff811115614732576147326146c0565b614745601f8201601f19166020016146d6565b81815284602083860101111561475a57600080fd5b816020850160208301376000918101602001919091529392505050565b600080600080600060a0868803121561478f57600080fd5b853567ffffffffffffffff808211156147a757600080fd5b6147b389838a01614707565b965060208801359150808211156147c957600080fd5b6147d589838a01614707565b955060408801359150808211156147eb57600080fd5b6147f789838a01614707565b9450606088013591508082111561480d57600080fd5b61481989838a01614707565b9350608088013591508082111561482f57600080fd5b5061483c88828901614707565b9150509295509295909350565b6020815260006142256020830184614574565b6020815260006142256020830184614272565b60008060008060008060c0878903121561488857600080fd5b614891876141f3565b9550602087013567ffffffffffffffff808211156148ae57600080fd5b6148ba8a838b01614707565b965060408901359150808211156148d057600080fd5b6148dc8a838b01614707565b955060608901359150808211156148f257600080fd5b6148fe8a838b01614707565b9450608089013591508082111561491457600080fd5b6149208a838b01614707565b935060a089013591508082111561493657600080fd5b5061494389828a01614707565b9150509295509295509295565b6001600160a01b03841681526060810161496d6020830185614531565b8215156040830152949350505050565b6000806040838503121561499057600080fd5b614999836141f3565b91506020830135600581106149ad57600080fd5b809150509250929050565b600080604083850312156149cb57600080fd5b6149d4836141f3565b9150602083013567ffffffffffffffff8111156149f057600080fd5b6149fc85828601614707565b9150509250929050565b60018060a01b0381511682526000602082015160806020850152614a2d608085018261422c565b9050604083015115156040850152606083015160608501528091505092915050565b6000602080830181845280855180835260408601915060408160051b870101925083870160005b8281101561436e57603f19888603018452614a92858351614a06565b94509285019290850190600101614a76565b6020815260006142256020830184614a06565b60006020808385031215614aca57600080fd5b823567ffffffffffffffff80821115614ae257600080fd5b818501915085601f830112614af657600080fd5b813581811115614b0857614b086146c0565b8060051b9150614b198483016146d6565b8181529183018401918481019088841115614b3357600080fd5b938501935b83851015614b5857614b49856141f3565b82529385019390850190614b38565b98975050505050505050565b6020808252600c908201526b2737ba1030b71030b236b4b760a11b604082015260600190565b634e487b7160e01b600052603260045260246000fd5b600181811c90821680614bb457607f821691505b602082108103614bd457634e487b7160e01b600052602260045260246000fd5b50919050565b600060018201614bfa57634e487b7160e01b600052601160045260246000fd5b5060010190565b6020808252601290820152712737ba1030b71034b739ba34ba3aba34b7b760711b604082015260600190565b602080825260139082015272155cd95c88191bd95cc81b9bdd08195e1a5cdd606a1b604082015260600190565b6020808252601390820152725573657220616c72656164792065786973747360681b604082015260600190565b601f821115614cd157600081815260208120601f850160051c81016020861015614cae5750805b601f850160051c820191505b81811015614ccd57828155600101614cba565b5050505b505050565b815167ffffffffffffffff811115614cf057614cf06146c0565b614d0481614cfe8454614ba0565b84614c87565b602080601f831160018114614d395760008415614d215750858301515b600019600386901b1c1916600185901b178555614ccd565b600085815260208120601f198616915b82811015614d6857888601518255948401946001909101908401614d49565b5085821015614d865787850151600019600388901b60f8161c191681555b5050505050600190811b01905550565b60408101614da48285614531565b614225602083018461453156fea26469706673582212200a243f8748e4bb774096313f074bb24e64788e7558516aef99ed116c78b0872264736f6c63430008130033",
  "linkReferences": {},
  "deployedLinkReferences": {}
}