{
  "_format": "hh-sol-artifact-1",
  "contractName": "StudentAcademicManager",
  "sourceName": "contracts/StudentAcademicManager.sol",
  "abi": [
    {
      "inputs": [
        {
          "internalType": "address",
          "name": "_identityAddress",
          "type": "address"
        },
        {
          "internalType": "address",
          "name": "_courseManagementAddress",
          "type": "address"
        }
      ],
      "stateMutability": "nonpayable",
      "type": "constructor"
    },
    {
      "anonymous": false,
      "inputs": [
        {
          "indexed": true,
          "internalType": "address",
          "name": "student",
          "type": "address"
        },
        {
          "indexed": false,
          "internalType": "string",
          "name": "courseId",
          "type": "string"
        },
        {
          "indexed": false,
          "internalType": "string",
          "name": "semester",
          "type": "string"
        }
      ],
      "name": "EnrollmentCompleted",
      "type": "event"
    },
    {
      "anonymous": false,
      "inputs": [
        {
          "indexed": true,
          "internalType": "address",
          "name": "student",
          "type": "address"
        },
        {
          "indexed": false,
          "internalType": "uint256",
          "name": "newGpa",
          "type": "uint256"
        }
      ],
      "name": "GpaUpdated",
      "type": "event"
    },
    {
      "anonymous": false,
      "inputs": [
        {
          "indexed": true,
          "internalType": "address",
          "name": "student",
          "type": "address"
        },
        {
          "indexed": false,
          "internalType": "string",
          "name": "courseId",
          "type": "string"
        },
        {
          "indexed": false,
          "internalType": "string",
          "name": "semester",
          "type": "string"
        },
        {
          "indexed": false,
          "internalType": "uint8",
          "name": "grade",
          "type": "uint8"
        }
      ],
      "name": "GradeUpdated",
      "type": "event"
    },
    {
      "anonymous": false,
      "inputs": [
        {
          "indexed": true,
          "internalType": "address",
          "name": "previousOwner",
          "type": "address"
        },
        {
          "indexed": true,
          "internalType": "address",
          "name": "newOwner",
          "type": "address"
        }
      ],
      "name": "OwnershipTransferred",
      "type": "event"
    },
    {
      "anonymous": false,
      "inputs": [
        {
          "indexed": false,
          "internalType": "address",
          "name": "account",
          "type": "address"
        }
      ],
      "name": "Paused",
      "type": "event"
    },
    {
      "anonymous": false,
      "inputs": [
        {
          "indexed": true,
          "internalType": "address",
          "name": "student",
          "type": "address"
        },
        {
          "indexed": false,
          "internalType": "string",
          "name": "courseId",
          "type": "string"
        },
        {
          "indexed": false,
          "internalType": "string",
          "name": "semester",
          "type": "string"
        }
      ],
      "name": "StudentEnrolled",
      "type": "event"
    },
    {
      "anonymous": false,
      "inputs": [
        {
          "indexed": false,
          "internalType": "address",
          "name": "account",
          "type": "address"
        }
      ],
      "name": "Unpaused",
      "type": "event"
    },
    {
      "inputs": [],
      "name": "courseManagementContract",
      "outputs": [
        {
          "internalType": "contract CourseManagement",
          "name": "",
          "type": "address"
        }
      ],
      "stateMutability": "view",
      "type": "function"
    },
    {
      "inputs": [
        {
          "internalType": "address",
          "name": "_student",
          "type": "address"
        },
        {
          "internalType": "string",
          "name": "_courseId",
          "type": "string"
        },
        {
          "internalType": "string",
          "name": "_semester",
          "type": "string"
        }
      ],
      "name": "enrollStudent",
      "outputs": [],
      "stateMutability": "nonpayable",
      "type": "function"
    },
    {
      "inputs": [
        {
          "internalType": "address",
          "name": "_student",
          "type": "address"
        }
      ],
      "name": "getStudentEnrolledCourses",
      "outputs": [
        {
          "internalType": "string[]",
          "name": "",
          "type": "string[]"
        }
      ],
      "stateMutability": "view",
      "type": "function"
    },
    {
      "inputs": [
        {
          "internalType": "address",
          "name": "_student",
          "type": "address"
        },
        {
          "internalType": "string",
          "name": "_courseId",
          "type": "string"
        },
        {
          "internalType": "string",
          "name": "_semester",
          "type": "string"
        }
      ],
      "name": "getStudentEnrollment",
      "outputs": [
        {
          "internalType": "string",
          "name": "courseId",
          "type": "string"
        },
        {
          "internalType": "string",
          "name": "semester",
          "type": "string"
        },
        {
          "internalType": "uint8",
          "name": "grade",
          "type": "uint8"
        },
        {
          "internalType": "bool",
          "name": "isCompleted",
          "type": "bool"
        },
        {
          "internalType": "uint256",
          "name": "enrollmentDate",
          "type": "uint256"
        }
      ],
      "stateMutability": "view",
      "type": "function"
    },
    {
      "inputs": [
        {
          "internalType": "address",
          "name": "_student",
          "type": "address"
        }
      ],
      "name": "getStudentGpa",
      "outputs": [
        {
          "internalType": "uint256",
          "name": "",
          "type": "uint256"
        }
      ],
      "stateMutability": "view",
      "type": "function"
    },
    {
      "inputs": [
        {
          "internalType": "address",
          "name": "_student",
          "type": "address"
        },
        {
          "internalType": "string",
          "name": "_courseId",
          "type": "string"
        }
      ],
      "name": "getStudentSemestersForCourse",
      "outputs": [
        {
          "internalType": "string[]",
          "name": "",
          "type": "string[]"
        }
      ],
      "stateMutability": "view",
      "type": "function"
    },
    {
      "inputs": [
        {
          "internalType": "address",
          "name": "_student",
          "type": "address"
        }
      ],
      "name": "getStudentTotalCredits",
      "outputs": [
        {
          "internalType": "uint256",
          "name": "",
          "type": "uint256"
        }
      ],
      "stateMutability": "view",
      "type": "function"
    },
    {
      "inputs": [],
      "name": "identityContract",
      "outputs": [
        {
          "internalType": "contract Identity",
          "name": "",
          "type": "address"
        }
      ],
      "stateMutability": "view",
      "type": "function"
    },
    {
      "inputs": [
        {
          "internalType": "address",
          "name": "_student",
          "type": "address"
        },
        {
          "internalType": "string",
          "name": "_courseId",
          "type": "string"
        },
        {
          "internalType": "string",
          "name": "_semester",
          "type": "string"
        }
      ],
      "name": "isStudentEnrolled",
      "outputs": [
        {
          "internalType": "bool",
          "name": "",
          "type": "bool"
        }
      ],
      "stateMutability": "view",
      "type": "function"
    },
    {
      "inputs": [],
      "name": "owner",
      "outputs": [
        {
          "internalType": "address",
          "name": "",
          "type": "address"
        }
      ],
      "stateMutability": "view",
      "type": "function"
    },
    {
      "inputs": [],
      "name": "paused",
      "outputs": [
        {
          "internalType": "bool",
          "name": "",
          "type": "bool"
        }
      ],
      "stateMutability": "view",
      "type": "function"
    },
    {
      "inputs": [],
      "name": "renounceOwnership",
      "outputs": [],
      "stateMutability": "nonpayable",
      "type": "function"
    },
    {
      "inputs": [
        {
          "internalType": "address",
          "name": "newOwner",
          "type": "address"
        }
      ],
      "name": "transferOwnership",
      "outputs": [],
      "stateMutability": "nonpayable",
      "type": "function"
    },
    {
      "inputs": [
        {
          "internalType": "address",
          "name": "_student",
          "type": "address"
        },
        {
          "internalType": "string",
          "name": "_courseId",
          "type": "string"
        },
        {
          "internalType": "string",
          "name": "_semester",
          "type": "string"
        },
        {
          "internalType": "uint8",
          "name": "_grade",
          "type": "uint8"
        }
      ],
      "name": "updateGrade",
      "outputs": [],
      "stateMutability": "nonpayable",
      "type": "function"
    }
  ],
  "bytecode": "0x60806040523480156200001157600080fd5b5060405162001f6e38038062001f6e8339810160408190526200003491620001bc565b6200003f336200014f565b6000805460ff60a01b191690556001600160a01b038216620000b25760405162461bcd60e51b815260206004820152602160248201527f496e76616c6964206964656e7469747920636f6e7472616374206164647265736044820152607360f81b60648201526084015b60405180910390fd5b6001600160a01b0381166200011d5760405162461bcd60e51b815260206004820152602a60248201527f496e76616c696420636f75727365206d616e6167656d656e7420636f6e7472616044820152696374206164647265737360b01b6064820152608401620000a9565b600180546001600160a01b039384166001600160a01b03199182161790915560028054929093169116179055620001f4565b600080546001600160a01b038381166001600160a01b0319831681178455604051919092169283917f8be0079c531659141344cd1fd0a4f28419497f9722a3daafe3b4186f6b6457e09190a35050565b80516001600160a01b0381168114620001b757600080fd5b919050565b60008060408385031215620001d057600080fd5b620001db836200019f565b9150620001eb602084016200019f565b90509250929050565b611d6a80620002046000396000f3fe608060405234801561001057600080fd5b50600436106100ea5760003560e01c8063715018a61161008c5780638da5cb5b116100665780638da5cb5b1461021657806395d02fd714610227578063c64d91f71461023a578063f2fde38b1461026657600080fd5b8063715018a6146101c05780637853f03a146101c85780637d853e7f1461020357600080fd5b80634e4a9844116100c85780634e4a984414610151578063557508c41461017c5780635c975abb1461018f57806367031bae146101ad57600080fd5b80631c545fab146100ef57806329f4bd1d1461011c5780634727b1e914610131575b600080fd5b6101026100fd366004611701565b610279565b6040516101139594939291906117c5565b60405180910390f35b61012f61012a36600461180b565b610434565b005b61014461013f366004611898565b61090e565b60405161011391906118ba565b600254610164906001600160a01b031681565b6040516001600160a01b039091168152602001610113565b61014461018a36600461191c565b610a00565b600054600160a01b900460ff165b6040519015158152602001610113565b600154610164906001600160a01b031681565b61012f610b15565b6101f56101d6366004611898565b6001600160a01b03166000908152600360208190526040909120015490565b604051908152602001610113565b61012f610211366004611701565b610b29565b6000546001600160a01b0316610164565b61019d610235366004611701565b61110c565b6101f5610248366004611898565b6001600160a01b031660009081526003602052604090206004015490565b61012f610274366004611898565b61116d565b606080600080600080600360008a6001600160a01b03166001600160a01b03168152602001908152602001600020600001886040516102b8919061196a565b9081526020016040518091039020876040516102d4919061196a565b9081526040519081900360200190206002810154600382015482549293508392600184019260ff808216936101009092041691859061031290611986565b80601f016020809104026020016040519081016040528092919081815260200182805461033e90611986565b801561038b5780601f106103605761010080835404028352916020019161038b565b820191906000526020600020905b81548152906001019060200180831161036e57829003601f168201915b5050505050945083805461039e90611986565b80601f01602080910402602001604051908101604052809291908181526020018280546103ca90611986565b80156104175780601f106103ec57610100808354040283529160200191610417565b820191906000526020600020905b8154815290600101906020018083116103fa57829003601f168201915b505050505093509550955095509550955050939792965093509350565b600154604051633da1c0c360e01b81523360048201526001600160a01b0390911690633da1c0c390602401602060405180830381865afa15801561047c573d6000803e3d6000fd5b505050506040513d601f19601f820116820180604052508101906104a091906119d0565b80156105275750600154604051632782085160e01b81523360048201526002916001600160a01b031690632782085190602401602060405180830381865afa1580156104f0573d6000803e3d6000fd5b505050506040513d601f19601f820116820180604052508101906105149190611a01565b6004811115610525576105256119eb565b145b6105785760405162461bcd60e51b815260206004820152601a60248201527f4e6f74206120766572696669656420696e737469747574696f6e00000000000060448201526064015b60405180910390fd5b600154604051633da1c0c360e01b81526001600160a01b03808716600483015286921690633da1c0c390602401602060405180830381865afa1580156105c2573d6000803e3d6000fd5b505050506040513d601f19601f820116820180604052508101906105e691906119d0565b801561066f575060018054604051632782085160e01b81526001600160a01b03848116600483015290911690632782085190602401602060405180830381865afa158015610638573d6000803e3d6000fd5b505050506040513d601f19601f8201168201806040525081019061065c9190611a01565b600481111561066d5761066d6119eb565b145b6106b45760405162461bcd60e51b8152602060048201526016602482015275139bdd0818481d995c9a599a5959081cdd1d59195b9d60521b604482015260640161056f565b60648260ff1611156106f85760405162461bcd60e51b815260206004820152600d60248201526c496e76616c696420677261646560981b604482015260640161056f565b600484604051610708919061196a565b908152602001604051809103902083604051610724919061196a565b90815260408051602092819003830190206001600160a01b0388166000908152925290205460ff166107a45760405162461bcd60e51b815260206004820152602360248201527f53747564656e74206e6f7420656e726f6c6c656420696e207468697320636f7560448201526272736560e81b606482015260840161056f565b6001600160a01b038516600090815260036020526040808220905190919082906107cf90889061196a565b9081526020016040518091039020856040516107eb919061196a565b908152604051908190036020019020600281015490915060ff61010090910416156108585760405162461bcd60e51b815260206004820152601860248201527f436f7572736520616c726561647920636f6d706c657465640000000000000000604482015260640161056f565b60028101805461ffff191660ff86161761010017905542600583015561087d876111e6565b866001600160a01b03167f21a49c9901829788318d4a49a8e1db6ca0c900d54fc8a6b6a52eb3a102d63a528787876040516108ba93929190611a22565b60405180910390a2866001600160a01b03167f859128ddf5dce1b296f7fcd503e4c60efffc4a80f8779c63db28543ca4b0c96e87876040516108fd929190611a5b565b60405180910390a250505050505050565b6001600160a01b0381166000908152600360209081526040808320600101805482518185028101850190935280835260609492939192909184015b828210156109f557838290600052602060002001805461096890611986565b80601f016020809104026020016040519081016040528092919081815260200182805461099490611986565b80156109e15780601f106109b6576101008083540402835291602001916109e1565b820191906000526020600020905b8154815290600101906020018083116109c457829003601f168201915b505050505081526020019060010190610949565b505050509050919050565b6001600160a01b03821660009081526003602052604090819020905160609160020190610a2e90849061196a565b9081526020016040518091039020805480602002602001604051908101604052809291908181526020016000905b82821015610b08578382906000526020600020018054610a7b90611986565b80601f0160208091040260200160405190810160405280929190818152602001828054610aa790611986565b8015610af45780601f10610ac957610100808354040283529160200191610af4565b820191906000526020600020905b815481529060010190602001808311610ad757829003601f168201915b505050505081526020019060010190610a5c565b5050505090505b92915050565b610b1d611576565b610b2760006115d0565b565b600154604051633da1c0c360e01b81523360048201526001600160a01b0390911690633da1c0c390602401602060405180830381865afa158015610b71573d6000803e3d6000fd5b505050506040513d601f19601f82011682018060405250810190610b9591906119d0565b8015610c1c5750600154604051632782085160e01b81523360048201526002916001600160a01b031690632782085190602401602060405180830381865afa158015610be5573d6000803e3d6000fd5b505050506040513d601f19601f82011682018060405250810190610c099190611a01565b6004811115610c1a57610c1a6119eb565b145b610c685760405162461bcd60e51b815260206004820152601a60248201527f4e6f74206120766572696669656420696e737469747574696f6e000000000000604482015260640161056f565b600154604051633da1c0c360e01b81526001600160a01b03808616600483015285921690633da1c0c390602401602060405180830381865afa158015610cb2573d6000803e3d6000fd5b505050506040513d601f19601f82011682018060405250810190610cd691906119d0565b8015610d5f575060018054604051632782085160e01b81526001600160a01b03848116600483015290911690632782085190602401602060405180830381865afa158015610d28573d6000803e3d6000fd5b505050506040513d601f19601f82011682018060405250810190610d4c9190611a01565b6004811115610d5d57610d5d6119eb565b145b610da45760405162461bcd60e51b8152602060048201526016602482015275139bdd0818481d995c9a599a5959081cdd1d59195b9d60521b604482015260640161056f565b600483604051610db4919061196a565b908152602001604051809103902082604051610dd0919061196a565b90815260408051602092819003830190206001600160a01b0387166000908152925290205460ff1615610e6b5760405162461bcd60e51b815260206004820152603960248201527f53747564656e7420616c726561647920656e726f6c6c656420696e207468697360448201527f20636f7572736520666f7220746869732073656d657374657200000000000000606482015260840161056f565b60025460405163a3bb36c160e01b81526000916001600160a01b03169063a3bb36c190610e9c908790600401611a89565b600060405180830381865afa158015610eb9573d6000803e3d6000fd5b505050506040513d6000823e601f3d908101601f19168201604052610ee19190810190611ae9565b5094505050505080610f2c5760405162461bcd60e51b8152602060048201526014602482015273436f75727365206973206e6f742061637469766560601b604482015260640161056f565b6001600160a01b0385166000908152600360209081526040808320815160a0810183528881529283018790528282018490526060830193909352426080830152518290610f7a90889061196a565b908152602001604051809103902085604051610f96919061196a565b90815260405190819003602001902081518190610fb39082611be3565b5060208201516001820190610fc89082611be3565b506040820151600282018054606085015115156101000261ffff1990911660ff90931692909217919091179055608090910151600390910155600181810180549182018155600090815260209020016110218682611be3565b508060020185604051611034919061196a565b90815260405160209181900382019020805460018101825560009182529190200161105f8582611be3565b506001600486604051611072919061196a565b90815260200160405180910390208560405161108e919061196a565b90815260408051602092819003830181206001600160a01b038b1660008181529190945291909120805460ff191693151593909317909255426005840155907f577807883b3cd38de5f743fffd9839aade61cf7ca68079ca87800e789d97f71f906110fc9088908890611a5b565b60405180910390a2505050505050565b600060048360405161111e919061196a565b90815260200160405180910390208260405161113a919061196a565b908152604080519182900360209081019092206001600160a01b0387166000908152925290205460ff1690509392505050565b611175611576565b6001600160a01b0381166111da5760405162461bcd60e51b815260206004820152602660248201527f4f776e61626c653a206e6577206f776e657220697320746865207a65726f206160448201526564647265737360d01b606482015260840161056f565b6111e3816115d0565b50565b6001600160a01b03811660009081526003602052604081209080805b60018401548110156114fc57600084600101828154811061122557611225611ca3565b90600052602060002001805461123a90611986565b80601f016020809104026020016040519081016040528092919081815260200182805461126690611986565b80156112b35780601f10611288576101008083540402835291602001916112b3565b820191906000526020600020905b81548152906001019060200180831161129657829003601f168201915b50505050509050600085600201826040516112ce919061196a565b9081526020016040518091039020805480602002602001604051908101604052809291908181526020016000905b828210156113a857838290600052602060002001805461131b90611986565b80601f016020809104026020016040519081016040528092919081815260200182805461134790611986565b80156113945780601f1061136957610100808354040283529160200191611394565b820191906000526020600020905b81548152906001019060200180831161137757829003601f168201915b5050505050815260200190600101906112fc565b50505050905060005b81518110156114e657600087600001846040516113ce919061196a565b90815260200160405180910390208383815181106113ee576113ee611ca3565b6020026020010151604051611403919061196a565b908152604051908190036020019020600281015490915060ff61010090910416156114d35760025460405163a3bb36c160e01b81526000916001600160a01b03169063a3bb36c190611459908890600401611a89565b600060405180830381865afa158015611476573d6000803e3d6000fd5b505050506040513d6000823e601f3d908101601f1916820160405261149e9190810190611ae9565b50505060028501549093506114b9925083915060ff16611ccf565b6114c39089611ce6565b97506114cf8188611ce6565b9650505b50806114de81611cf9565b9150506113b1565b50505080806114f490611cf9565b915050611202565b5080156115705761150e816064611ccf565b611519836064611ccf565b6115239190611d12565b60048401819055600384018290556040519081526001600160a01b038516907fe98853f4c307e11568522ff98b70b34a7cd34ae78db2e1de7f5a59cd37ce8d659060200160405180910390a25b50505050565b6000546001600160a01b03163314610b275760405162461bcd60e51b815260206004820181905260248201527f4f776e61626c653a2063616c6c6572206973206e6f7420746865206f776e6572604482015260640161056f565b600080546001600160a01b038381166001600160a01b0319831681178455604051919092169283917f8be0079c531659141344cd1fd0a4f28419497f9722a3daafe3b4186f6b6457e09190a35050565b80356001600160a01b038116811461163757600080fd5b919050565b634e487b7160e01b600052604160045260246000fd5b604051601f8201601f1916810167ffffffffffffffff8111828210171561167b5761167b61163c565b604052919050565b600067ffffffffffffffff82111561169d5761169d61163c565b50601f01601f191660200190565b600082601f8301126116bc57600080fd5b81356116cf6116ca82611683565b611652565b8181528460208386010111156116e457600080fd5b816020850160208301376000918101602001919091529392505050565b60008060006060848603121561171657600080fd5b61171f84611620565b9250602084013567ffffffffffffffff8082111561173c57600080fd5b611748878388016116ab565b9350604086013591508082111561175e57600080fd5b5061176b868287016116ab565b9150509250925092565b60005b83811015611790578181015183820152602001611778565b50506000910152565b600081518084526117b1816020860160208601611775565b601f01601f19169290920160200192915050565b60a0815260006117d860a0830188611799565b82810360208401526117ea8188611799565b60ff9690961660408401525050911515606083015260809091015292915050565b6000806000806080858703121561182157600080fd5b61182a85611620565b9350602085013567ffffffffffffffff8082111561184757600080fd5b611853888389016116ab565b9450604087013591508082111561186957600080fd5b50611876878288016116ab565b925050606085013560ff8116811461188d57600080fd5b939692955090935050565b6000602082840312156118aa57600080fd5b6118b382611620565b9392505050565b6000602080830181845280855180835260408601915060408160051b870101925083870160005b8281101561190f57603f198886030184526118fd858351611799565b945092850192908501906001016118e1565b5092979650505050505050565b6000806040838503121561192f57600080fd5b61193883611620565b9150602083013567ffffffffffffffff81111561195457600080fd5b611960858286016116ab565b9150509250929050565b6000825161197c818460208701611775565b9190910192915050565b600181811c9082168061199a57607f821691505b6020821081036119ba57634e487b7160e01b600052602260045260246000fd5b50919050565b8051801515811461163757600080fd5b6000602082840312156119e257600080fd5b6118b3826119c0565b634e487b7160e01b600052602160045260246000fd5b600060208284031215611a1357600080fd5b8151600581106118b357600080fd5b606081526000611a356060830186611799565b8281036020840152611a478186611799565b91505060ff83166040830152949350505050565b604081526000611a6e6040830185611799565b8281036020840152611a808185611799565b95945050505050565b6020815260006118b36020830184611799565b600082601f830112611aad57600080fd5b8151611abb6116ca82611683565b818152846020838601011115611ad057600080fd5b611ae1826020830160208701611775565b949350505050565b60008060008060008060c08789031215611b0257600080fd5b865167ffffffffffffffff80821115611b1a57600080fd5b611b268a838b01611a9c565b97506020890151915080821115611b3c57600080fd5b611b488a838b01611a9c565b9650604089015195506060890151915080821115611b6557600080fd5b50611b7289828a01611a9c565b935050611b81608088016119c0565b915060a087015190509295509295509295565b601f821115611bde57600081815260208120601f850160051c81016020861015611bbb5750805b601f850160051c820191505b81811015611bda57828155600101611bc7565b5050505b505050565b815167ffffffffffffffff811115611bfd57611bfd61163c565b611c1181611c0b8454611986565b84611b94565b602080601f831160018114611c465760008415611c2e5750858301515b600019600386901b1c1916600185901b178555611bda565b600085815260208120601f198616915b82811015611c7557888601518255948401946001909101908401611c56565b5085821015611c935787850151600019600388901b60f8161c191681555b5050505050600190811b01905550565b634e487b7160e01b600052603260045260246000fd5b634e487b7160e01b600052601160045260246000fd5b8082028115828204841417610b0f57610b0f611cb9565b80820180821115610b0f57610b0f611cb9565b600060018201611d0b57611d0b611cb9565b5060010190565b600082611d2f57634e487b7160e01b600052601260045260246000fd5b50049056fea264697066735822122068ff506884d438af898e1e36b1b557f1cdf30651af3d1c16714db01f67c48bd064736f6c63430008130033",
  "linkReferences": {},
  "deployedLinkReferences": {}
}